S010000070726F6A656374382E73726563E5
S11300000EC100002AC1000028C1000026C1000062
S113001024C1000022C1000020C100001EC1000054
S11300201CC100001AC1000018C1000016C1000064
S113003014C1000012C1000010C100000EC1000074
S11300400CC100000AC1000008C1000006C1000084
S113005004C1000002C1000000C10000FEC0000095
S1130060FCC00000FAC00000F8C00000F6C00000A8
S1130070F4C00000F2C00000F0C00000EEC00000B8
S1130080ECC00000EAC00000E8C00000076342368C
S1130090B79BD8A71A39685618AEBAAB558C1D3C15
S11300A0B7CC5763BD6DEDFD753EF6177231BF00D9
S11300B00000803F08000000BE922449123EABAA13
S11300C0AA2ABECDCCCC4C3E00000080BEABAAAA6E
S11300D0AA3E00000000BF000000803F00000000B6
S11300E000084178D3BB4387D1133D190E3CC3BDEF
S11300F04282AD2B3E68EC8276BED98FE1A93E4C9C
S113010080EFFFBE01C4FF7F3F00000000006E616E
S11301106E00696E660000407A10F35A00A0724EB9
S113012018090010A5D4E80000E87648170000E498
S11301300B54020000CA9A3B000000E1F5050000E0
S113014080969800000040420F000000A086010045
S11301500000102700000000E80300000000640015
S1130160000000000A000000000001000000000080
S11301702C76D888DC674F0823DFC1DFAE59E1B1A4
S1130180B796E5E3E453C63AE651997696E8E6C2B3
S11301908426EB898C9B62ED407C6FFCEFBC9C9FBA
S11301A040F2BAA56FA5F490055A2AF75C936B6CDC
S11301B0F9676DC11BFCE0E40D47FEF520E6B500D0
S11301C0D0ED902E0300943577050080841E08003E
S11301D000204E0A000000C80C333333330F986EEE
S11301E012831141EF8D2114893BE65516CFFEE6AB
S11301F0DB18D1844B381BF77C1D901DA4BBE42471
S1130200203284725E228100C9F124ECA1E53D27ED
S1130210D002D402D602D802DA02DC02DE021124B1
S11302201FBECFEFD0E1DEBFCDBF11E0A0E0B1E053
S1130230E6EAF8E200E00BBF02C007900D92AE318F
S1130240B107D9F721E0AEE1B1E001C01D92A133BD
S1130250B207E1F7EBD40C945114D2CE483008F035
S113026001C1893C09F4ADC000F5833009F46EC0C6
S113027078F4813009F45FC008F453C0A5B301C019
S1130280220F4A95EAF72A2726232A2725BB5CC092
S1130290853009F471C008F464C0863009F479C06B
S11302A0883C09F483C082E008958E3C09F4B5C00B
S11302B0B8F48B3C09F49BC008F48EC08C3C09F460
S11302C0A1C08D3C81F7E0916100A22F01C0AA0F6B
S11302D04A95EAF7AE27A623AE27A093610034C05F
S11302E0833D09F4A7C068F4823DE9F6E9B7A22F7B
S11302F001C0AA0F4A95EAF7AE27A623AE27A9BFE5
S113030023C0843D09F4A3C0853D69F6A8B7822FB4
S113031001C0880F4A95EAF78A2786238A2788BF6F
S113032013C0ABB301C0220F4A95EAF72A2726234C
S11303302A272BBB0895A8B301C0220F4A95EAF7D8
S11303402A2726232A2728BB80E00895E2B3A22F78
S113035001C0AA0F4A95EAF7AE27A623AE27A2BB8F
S1130360F3CFE3B1A22F01C0AA0F4A95EAF7AE2753
S1130370A623AE27A3B9E8CFE0916200A22F01C063
S1130380AA0F4A95EAF7AE27A623AE27A0936200E8
S1130390DBCFE0916500A22F01C0AA0F4A95EAF7CE
S11303A0AE27A623AE27A0936500CECFEAB3A22F33
S11303B001C0AA0F4A95EAF7AE27A623AE27AABB27
S11303C0C3CFE7B3A22F01C0AA0F4A95EAF7AE271D
S11303D0A623AE27A7BBB8CFE4B3A22F01C0AA0FB0
S11303E04A95EAF7AE27A623AE27A4BBADCFE1B367
S11303F0A22F01C0AA0F4A95EAF7AE27A623AE277B
S1130400A1BBA2CFE2B1A22F01C0AA0F4A95EAF77D
S1130410AE27A623AE27A2B997CFE0916400A22FFE
S113042001C0AA0F4A95EAF7AE27A623AE27A093E8
S113043064008ACFA0916A00E22F01C0EE0F4A95B2
S1130440EAF7EA27E623EA27E0936A007DCFAAB712
S1130450E22F01C0EE0F4A95EAF7EA27E623EA27DE
S1130460EABF72CF85E00895F9014830E0F5893696
S113047081F178F4863649F130F48436C9F0853652
S113048011F182E00895873611F18836D1F781B1F0
S113049010C0833D19F130F48A36E9F0823D89F7C2
S11304A089B707C0843DE9F0853D59F788B701C095
S11304B089B3682370E002C0759567954A95E2F7A1
S11304C0608380E0089586B3F4CF83B3F2CF80B322
S11304D0F0CF80B1EECF80916300EBCF80916A00C2
S11304E0E8CF8AB7E6CF85E00895FA01613009F0D4
S11304F049C0863099F180F4823049F130F4882380
S1130500F9F0813001F182E008959081843021F185
S113051008F19093620019C08B3C51F140F4893C7E
S113052009F118F5883C79F780818ABB0EC08D3CAF
S113053029F108F18E3C39F780818093640005C06D
S113054090819BBB0895808188BB80E00895808161
S113055085BBFBCF92BBF9CF93B9F7CF8081809352
S11305606500F3CF808187BBF0CF808184BBEDCF62
S1130570808181BBEACF808182B9E7CF808180937B
S11305806100E3CF83E00895DA016130D1F4845649
S11305908730C8F4E82FF0E0E85FFE4F0C9439127E
S11305A089B38C9380E0089586B3FBCF83B3F9CFEE
S11305B080B3F7CF81B1F5CF80B1F3CF80916300E1
S11305C0F0CF83E0089582E008951AD039D03CD06A
S11305D04AE251E061E090E080E049C0CF93C82F47
S11305E08A3011F48DE0FADF5D9BFECFCCB990E048
S11305F080E0CF9108955F9BFECF8CB190E0089589
S11306001092900081E189B98AB188618AB9E5E9DB
S1130610F0E0808186608083EBE2F1E080E091E0AD
S113062093838283918380830895883040F498B3C0
S11306309F7140E2849F90011124922B98BB0895EE
S113064087B3806E87BB089587B3807F876087BB3D
S113065082E58DB908958FB9779BFECF8FB1089548
S11306609C01CA01462F50E0B9010C943B149C0133
S1130670CA01462F50E0B9010C942B148F929F921B
S1130680AF92BF92CF92DF92EF92FF92CF93DF931C
S11306906B017C01EA01603127E272078105910553
S11306A08CF081E090E090932901809328018AE006
S11306B090E0998388839B838A839D838C839F8323
S11306C08E8369C1AB01BC01D701C601885E93402A
S11306D0A109B10988329342A105B105D0F5C7013A
S11306E0B60128EE33E040E050E00E941D120F2EC8
S11306F0FAE08F2E912CA12CB12CF02DCA01B90156
S1130700A50194010E941D1279836883C701B60173
S113071024E630E040E050E00E941D12CA01B90115
S1130720A50194010E941D127B836A83C701B6014F
S1130730A50194010E941D126B017C01CA01B9013B
S1130740A50194010E941D127D836C83DF82CE82F9
S113075022C1D701C60184569109A109B10984387F
S11307609340A105B10570F58BE090E099838883EF
S1130770C701B60124E630E040E050E00E941D12BB
S11307800F2EFAE08F2E912CA12CB12CF02DCA0142
S1130790B901A50194010E941D127B836A83C701DC
S11307A0B601A50194010E941D126B017C01CA01CE
S11307B0B901A50194010E941D127D836C83DF821F
S11307C0CE82E9C0D701C6010A97A109B1098A35C9
S11307D09105A105B10500F58BE090E0998388832C
S11307E09B838A830F2EFAE08F2E912CA12CB12C9F
S11307F0F02DC701B601A50194010E941D126B01E1
S11308007C01CA01B901A50194010E941D127D83D6
S11308106C83DF82CE82BFC04A3051056105710509
S113082058F48BE090E0998388839B838A839D832B
S11308308C83DF82CE82AFC089E1C8168CEFD806E4
S11308408FEFE806F8068CF48AE090E099838883B9
S11308509B838A839D838C839F838E8381E090E036
S1130860909329018093280196C0D701C60189512C
S11308709C4FAF4FBF4F873E9340A105B10508F091
S11308808AC087EFC8168FEFD806E806F806ACF0E2
S11308908BE090E0998388839B838A838AE090E04D
S11308A09D838C83F094E094D094C094C11CD11C9B
S11308B0E11CF11CDF82CE826EC0D701C6018D59C6
S11308C09F4FAF4FBF4F8A359105A105B10538F54C
S11308D066277727CB016C197D098E099F092BE0C8
S11308E030E0398328832AE030E03B832A830F2ECB
S11308F0FAE08F2E912CA12CB12CF02DA50194019E
S11309000E941D126B017C01CA01B901A501940169
S11309100E941D127D836C83DF82CE823CC02DE950
S1130920C2162FEFD206E206F206ACF5F094E0947C
S1130930D094C094C11CD11CE11CF11C8AE090E04D
S113094099838883C701B60124E630E040E050E093
S11309500E941D120F2EFAE08F2E912CA12CB12C87
S1130960F02DCA01B901A50194010E941D127B83D7
S11309706A83C701B601A50194010E941D126B018F
S11309807C01CA01B901A50194010E941D127D8355
S11309906C83DF82CE82DF91CF91FF90EF90DF9066
S11309A0CF90BF90AF909F908F9008958F929F9219
S11309B0AF92BF92CF92DF92EF92FF920F931F9369
S11309C00130110591F489019A016B017C01C9017F
S11309D0B8011DD64B015C01C701B60118D6A501AB
S11309E0940179D6C4D6E0D525C00230110529F486
S11309F0621B730B840B950B1DC00330110519F496
S1130A000E94EC1117C00430110551F42115310571
S1130A104105510559F00E941D12CA01B9010AC0CD
S1130A20012B41F060E070E0CB0104C060E177E2AB
S1130A3080E090E01F910F91FF90EF90DF90CF90B6
S1130A40BF90AF909F908F900895CF93DF93EC0168
S1130A5020E140E060E180E001DC2FEF40E06FEF57
S1130A608AECFCDB209731F420E440E06FE782E07D
S1130A70F5DB61C0C130D10531F429E740E06FE70F
S1130A8082E0ECDB58C0C230D10531F424E240E00E
S1130A906FE782E0E3DB4FC0C330D10531F420E3DC
S1130AA040E06FE782E0DADB46C0C430D10531F4C0
S1130AB029E140E06FE782E0D1DB3DC0C530D105DC
S1130AC031F422E140E06FE782E0C8DB34C0C63095
S1130AD0D10531F422E040E06FE782E0BFDB2BC0B8
S1130AE0C730D10531F428E740E06FE782E0B6DB98
S1130AF022C0C830D10531F420E040E06FE782E045
S1130B00ADDB19C0C930D10531F420E140E06FE715
S1130B1082E0A4DB10C0CA30D10531F42FE340E0F9
S1130B206FE782E09BDB07C02B9729F42FE740E0B7
S1130B306FE782E093DBDF91CF9108956130710517
S1130B4079F484309105F9F183309105F9F182301B
S1130B509105F9F1019709F03FC08CE090E0089508
S1130B606230710571F484309105C9F183309105C7
S1130B70C9F182309105C9F10197D1F58DE090E07A
S1130B8008956430710571F484309105A1F18330C6
S1130B909105A1F182309105A1F10197A9F58EE0AB
S1130BA090E008956830710591F58430910591F1D4
S1130BB08330910591F18230910591F1019799F576
S1130BC08FE090E0089580E090E008958AE090E05E
S1130BD008958BE090E0089580E190E0089581E02D
S1130BE090E0089582E090E0089583E090E0089515
S1130BF080E190E0089584E090E0089585E090E03D
S1130C00089586E090E0089580E190E0089580E101
S1130C1090E0089587E090E0089588E090E00895DA
S1130C2089E090E0089580E190E00895CF93DF9308
S1130C30CDB7DEB762970FB6F894DEBF0FBECDBF57
S1130C40C4DC8EE091E00E949D13FE01319688E0A1
S1130C50DF011D928A95E9F72FE740E06FE78AEC00
S1130C60FDDA2FE740E06FE782E0F8DA2FE140E0B9
S1130C706FE188ECF3DA20E140E060E180E0EEDA55
S1130C8020E040E067E080E0E9DAECECFAE031975C
S1130C90F1F700C0000021E040E067E080E0DEDA28
S1130CA08CEC9AE00197F1F700C0000022E040E0EC
S1130CB067E080E0D3DAACECBAE01197F1F700C05A
S1130CC0000027E040E067E080E0C8DAECECFAE0FE
S1130CD03197F1F700C0000020E440E06FE782E0C4
S1130CE0BDDA23E040E067E080E0B8DA8CEC9AE01B
S1130CF00197F1F700C0000027E040E067E080E0E2
S1130D00ADDA01E010E0412C512C812C912C1F868E
S1130D10612C1E861D86DE011196BC87AB87689404
S1130D20772472F8212CBB85B88BEC85E98B362CA3
S1130D3020EF40E060EF8AEC91DA20E040E06FE0E1
S1130D408AEC8CDAA12CB12C8FEF97ED0197F1F797
S1130D5000C0000020E040E060E180E07FDA1A8615
S1130D601986A114B10449F420E140E060EF82E067
S1130D7075DAEE24E394F12C24C091E0A916B104B1
S1130D8051F420E240E060EF82E068DA6894EE24F7
S1130D90E1F8F12C16C0A2E0AA16B10459F420E43B
S1130DA040E060EF82E05ADA0F2EF3E0EF2EF02DF0
S1130DB0F12C07C020E840E060EF82E04FDAE72C36
S1130DC0F22C28E040E068E080E048DAECECFAE05D
S1130DD03197F1F700C0000020E040E068E080E0D7
S1130DE03DDA20E040E060EF82E038DAAE01475FB0
S1130DF05F4F61E086E6C8DB69857A858E2D9F2D7D
S1130E009DDE7C01409741F42FEF421A520A34E0F0
S1130E104316510444F402C0412C512C01301105F5
S1130E2009F0A1C302C0412C512C8091280190915A
S1130E302901892B41F08AE0E816F10409F49CC3E6
S1130E4001E010E090C36701C7010C97049708F410
S1130E50A2C397C39BE08916910409F5AAE0EA1698
S1130E60F104E8F41092220110922301109224015B
S1130E701092250110921E0110921F011092200160
S1130E80109221011092270110922601BAE0CB168C
S1130E90D10480F01F86312C1E861D86C0C0EAE076
S1130EA0CE16D10408F0BBC02D853E85232B09F056
S1130EB05BC002C01F86312CFF92EF9284E191E067
S1130EC09F938F930E948513809122019091230117
S1130ED0A0912401B0912501880F991FAA1FBB1F5F
S1130EE0AC01BD01440F551F661F771F440F551FEA
S1130EF0661F771F480F591F6A1F7B1FC7010F2CDE
S1130F00000CAA0BBB0B8A019B01080F191F2A1F97
S1130F103B1FC901B80100932201109323012093C0
S1130F2024013093250148895989A8DB8E010F5F7C
S1130F301F4F0F900F900F900F90612CD8018D913F
S1130F409D918D0182DD262D40E067E080E086D909
S1130F5024E040E067E080E081D96394B4E06B1260
S1130F60EDCF1E861D86F5C2ED85FE85319709F00D
S1130F7056C0FF92EF9204E111E01F930F930E9479
S1130F80851380911E0190911F01A0912001B091C1
S1130F902101880F991FAA1FBB1FAC01BD01440F7B
S1130FA0551F661F771F440F551F661F771F480F75
S1130FB0591F6A1F7B1FC7010F2C000CAA0BBB0B08
S1130FC08A019B01080F191F2A1F3B1FC901B80181
S1130FD000931E0110931F012093200130932101DF
S1130FE0488959894BDB8E010F5F1F4F0F900F907B
S1130FF00F900F90612CD8018D919D918D0125DD6D
S1131000262D40E067E080E029D924E040E067E055
S113101080E024D96394B4E06B12EDCF9AC2EAE085
S1131020EE16F10409F042C087E191E00E949D139D
S11310301092220110922301109224011092250192
S113104010921E0110921F01109220011092210192
S113105010922701109226010BE010E01A830983F5
S11310601C830B831E830D8318861F828E010F5FE2
S11310701F4F612CD8018D919D918D01E6DC262DA9
S113108040E067E080E0EAD824E040E067E080E008
S1131090E5D86394B4E06B12EDCF1092290110925D
S11310A028011F86312C1E861D8653C2EBE0EE16E6
S11310B0F10409F053C08DE390E00E94981320914D
S11310C01E0130911F014091200150912101609136
S11310D022017091230180912401909125010F85B3
S11310E0132D64DC162F072F682E9A8B6093220130
S11310F07093230180932401909325014889598991
S1131100BDDAFA89FF936F920F931F9309E111E0FF
S11311101F930F930E9485138E010F5F1F4F0F9033
S11311200F900F900F900F900F90612CD8018D911C
S11311309D918D018ADC262D40E067E080E08ED809
S113114024E040E067E080E089D86394B4E06B1267
S1131150EDCF8AE090E00E949813FBC1ECE0EE161C
S1131160F10409F079C08EE590E00E949813809113
S1131170260190912701019709F05DC00A301105FD
S113118008F059C020911E0130911F0140912001A7
S113119050912101609122017091230180912401D9
S11311A0909125010F85132D01DC162F072F682E32
S11311B0392E60932201709323018093240190932C
S11311C02501488959895ADA3F926F920F931F93E8
S11311D009E111E01F930F930E9485138E010F5FA5
S11311E01F4F0F900F900F900F900F900F90612C46
S11311F0D8018D919D918D0128DC262D40E067E07A
S113120080E02CD824E040E067E080E027D86394B5
S1131210B4E06B12EDCF10921E0110921F011092D8
S11312202001109221018AE090E00E949813E1E0ED
S1131230EF87312C8EC110921E0110921F01109263
S1131240200110922101F1E0F09326011092270170
S113125001E00F87312C7DC12DE0E216F10409F085
S11312607BC08DE290E00E949813809126019091BA
S11312702701019709F05FC00A30110508F05BC02F
S113128020911E0130911F014091200150912101B4
S11312906091220170912301809124019091250194
S11312A00F85132D83DB162F072F682E392E60939D
S11312B0220170932301809324019093250148898E
S11312C05989DCD93F926F920F931F9389E191E082
S11312D09F938F930E9485138E010F5F1F4F0F9072
S11312E00F900F900F900F900F90612CF801819147
S11312F091918F01AADB262D40E067E080E00E94F7
S11313002E0124E040E067E080E00E942E01639417
S1131310F4E06F12EBCF10921E0110921F01109295
S11313202001109221018AE090E00E94981302E0CB
S11313300F87312C0EC110921E0110921F011092C2
S113134020011092210111E010932601109227012F
S113135022E02F87312CFDC03EE0E316F10409F0B2
S11313607BC088E790E00E949813809126019091B9
S11313702701019709F05FC00A30110508F05BC02E
S113138020911E0130911F014091200150912101B3
S11313906091220170912301809124019091250193
S11313A00F85132D03DB162F072F682E392E60931C
S11313B0220170932301809324019093250148898D
S11313C059895CD93F926F920F931F9389E191E001
S11313D09F938F930E9485138E010F5F1F4F0F9071
S11313E00F900F900F900F900F90612CF801819146
S11313F091918F012ADB262D40E067E080E00E9476
S11314002E0124E040E067E080E00E942E01639416
S1131410F4E06F12EBCF10921E0110921F01109294
S11314202001109221018AE090E00E94981303E0C9
S11314300F87312C8EC010921E0110921F01109242
S113144020011092210111E010932601109227012E
S113145023E02F87312C7DC03FE0E316F10409F02F
S113146078C08FE290E00E949813809126019091B9
S11314702701019709F05EC00A30110508F05AC02F
S113148020911E0130911F014091200150912101B2
S11314906091220170912301809124019091250192
S11314A00F85132D83DA162F072F682E392E60939C
S11314B0220170932301809324019093250148898C
S11314C05989DCD83F926F920F931F9389E191E081
S11314D09F938F930E9485138E010F5F1F4F0F9070
S11314E00F900F900F900F900F90612CF801819145
S11314F091918F01AADA262D40E067E080E00E94F6
S11315002E0124E040E067E080E00E942E01639415
S1131510F4E06F12EBCF10921E0110921F01109293
S11315202001109221018AE090E00E9498137F86A6
S1131530322C0FC010921E0110921F011092200134
S11315401092210101E000932601109227017F8669
S1131550322C10E1C116D10420F4470100E010E060
S113156002C001E010E02FEFA21AB20A34E0A31681
S1131570B10409F0E9CBDCCB0F2EFAE0CF2ED12C4D
S1131580F02D840167CC109227011092260181E08E
S11315908D871E865FCC8401C4010C97049798F351
S11315A091E09D871E8656CC04D06894B1118DC0FD
S11315B0089570D088F09F5790F0B92F9927B751AC
S11315C0A0F0D1F0660F771F881F991F1AF0BA9503
S11315D0C9F712C0B13081F077D0B1E0089574C07A
S11315E0672F782F8827B85F39F0B93FCCF38695F9
S11315F077956795B395D9F73EF490958095709556
S113160061957F4F8F4F9F4F0895E89409C097FBD2
S11316103EF490958095709561957F4F8F4F9F4FC5
S11316209923A9F0F92F96E9BB279395F695879509
S113163077956795B795F111F8CFFAF4BB0F11F4CC
S113164060FF1BC06F5F7F4F8F4F9F4F16C0882373
S113165011F096E911C0772321F09EE8872F762FA9
S113166005C0662371F096E8862F70E060E02AF0EA
S11316709A95660F771F881FDAF7880F96958795D6
S113168097F9089557FD9058440F551F59F05F3F3F
S113169071F04795880F97FB991F61F09F3F79F090
S11316A087950895121613061406551FF2CF469512
S11316B0F1DF08C0161617061806991FF1CF869594
S11316C07105610508940895E894BB276627772778
S11316D0CB0197F90895FA01EE0FFF1F309621050B
S11316E0310599F16115710561F48038BFE39B07F9
S11316F049F168949038810561F08038BFEF9B0709
S113170041F0992342F5FF3FE1053105210511F12F
S1131710E8940894E795D901AA2329F4AB2FBE2FA6
S1131720F85FD0F310C0FF5F70F4A695E0F7F739C7
S113173050F019F0FF3A38F49F779F930CD00F9034
S113174007FC905808953EF092C060E070E080E895
S11317509FE308954FE79F775F934F933F932F93B2
S1131760F0D02F913F914F915F915ED125C092DFD0
S1131770E0F09E37D8F09639B8F49E3848F4672FD5
S1131780782F8827985FF9CF8695779567959395F5
S11317909539D0F3B62FB1706B0F711D811D20F4F4
S11317A0879577956795939539C053C08ECF19F473
S11317B00EF02EC089CF5BC06DDFC8F39638C0F73A
S11317C007F80F92E8942BE33AEA48EB5FE73AD143
S11317D00F920F920F924DB75EB70F92F2D0ECE8D2
S11317E0F0E048D04F915F91EF91FF91E595EE1FA6
S11317F0FF1F49F0FE57E0684427EE0F441FFA9597
S1131800E1F74195550B64D00F9007FE58C0089539
S113181097F99F6780E870E060E00895882371F489
S1131820772321F09850872B762F07C0662311F475
S113183099270DC09051862B70E060E02AF09A95AC
S1131840660F771F881FDAF7880F9695879597F9A3
S113185008959F3F31F0915020F4879577956795CF
S1131860B795880F911D9695879597F908959FEFE1
S113187080EC0895DF93CF931F930F93FF92EF9221
S1131880DF927B018C01689405C0DA2EEF01D8D079
S1131890FE01E894A5912591359145915591AEF3BA
S11318A0EF0137D1FE019701A801DA9479F7DF90AF
S11318B0EF90FF900F911F91CF91DF9108959B01BD
S11318C0AC0160E070E080E89FE376C1A1CFC1CFB6
S11318D0E1DEE8F39923D9F3940F511DBBF3915042
S11318E0504094F059F0882332F0660F771F881F18
S11318F091505040C1F79E3F510544F7880F911D08
S11319009695879597F908955F3FACF0983E9CF0C3
S1131910BB27869577956795B79508F4B16093953D
S1131920C1F7BB0F58F711F460FFE8CF6F5F7F4F2B
S11319308F4F9F4FE3CFC9CE0EF08BCF98CF6894D3
S113194067CFA8DEC8F39923D1F3C6F3DF93CF930F
S11319501F930F93FF92C92FDD2788232AF0219725
S1131960660F771F881FDAF720E030E040E85FEB6E
S11319709FE3883920F0803E30F021968F77B8D0ED
S1131980E4EBF0E003C0B4D0E1EEF0E073DF8B01F0
S1131990BE01EC01FB2E6F5771097595771F880BFB
S11319A0990B35DE28E132E741E35FE349D0AF2DFF
S11319B09801AE01FF900F911F91CF91DF91A9D0B3
S11319C071C1FA01DC01AA0FBB1F9B01AC01BF5717
S11319D028F422273327442750781FC0B75188F4AE
S11319E0AB2F0024469537952795011CA395D2F378
S11319F0002069F0220F331F441FB395DAF30DD092
S1131A0076C061307105A0E88A07B94630F49B01BD
S1131A10AC016627772788279078309621F02083B9
S1131A2031834283538308950BD03CC12DD128F0D8
S1131A3032D118F0952309F0EBCE19CF112445CEFD
S1131A4021DEA0F3959FD1F3950F50E0551F629FBF
S1131A50F001729FBB27F00DB11D639FAA27F00D03
S1131A60B11DAA1F649F6627B00DA11D661F829F2A
S1131A702227B00DA11D621F739FB00DA11D621F0F
S1131A80839FA00D611D221F749F3327A00D611D2C
S1131A90231F849F600D211D822F762F6A2F11240E
S1131AA09F5750408AF0E1F088234AF0EE0FFF1F61
S1131AB0BB1F661F771F881F91505040A9F79E3F98
S1131AC0510570F0A5CE01CE5F3FECF3983EDCF3F8
S1131AD0869577956795B795F795E7959F5FC1F7D5
S1131AE0FE2B880F911D9695879597F90895505868
S1131AF0BB27AA270ED0D6C0C7D030F0CCD020F058
S1131B0031F49F3F11F41EF4B2CE0EF4E095E7FBDE
S1131B107FCEE92FB7DD80F3BA1762077307840716
S1131B20950718F071F49EF5CFCD0EF4E0950B2EC9
S1131B30BA2FA02D0B01B90190010C01CA01A0011B
S1131B401124FF27591B99F0593F50F4503E68F176
S1131B501A16F040A22F232F342F4427585FF3CFB7
S1131B60469537952795A795F0405395C9F77EF488
S1131B701F16BA0B620B730B840BBAF09150A1F0D1
S1131B80FF0FBB1F661F771F881FC2F70EC0BA0F57
S1131B90621F731F841F48F4879577956795B795DF
S1131BA0F7959E3F08F0B3CF9395880F08F09927D7
S1131BB0EE0F9795879508950CD074C06CD040F0C3
S1131BC063D030F021F45F3F19F022CE51117DCD66
S1131BD04ECE58DD98F39923C9F35523B1F3951BE1
S1131BE0550BBB27AA2762177307840738F09F5F3A
S1131BF05F4F220F331F441FAA1FA9F333D00E2EA9
S1131C003AF0E0E830D091505040E695001CCAF715
S1131C1029D0FE2F27D0660F771F881FBB1F2617DA
S1131C2037074807AB07B0E809F0BB0B802DBF01AD
S1131C30FF2793585F4F2AF09E3F510568F0E8CD87
S1131C4044CD5F3FECF3983EDCF38695779567953A
S1131C50B795F7959F5FC9F7880F911D969587955E
S1131C6097F90895E1E0660F771F881FBB1F62177D
S1131C7073078407BA0720F0621B730B840BBA0B3B
S1131C80EE1F88F7E095089500240A9416161706A7
S1131C9018060906089500240A9412161306140659
S1131CA005060895092E0394000C11F4882352F0BC
S1131CB0BB0F40F4BF2B11F460FF04C06F5F7F4F74
S1131CC08F4F9F4F08952F923F924F925F926F9242
S1131CD07F928F929F92AF92BF92CF92DF92EF92B8
S1131CE0FF920F931F93CF93DF93CDB7DEB7609727
S1131CF00FB6F894DEBF0FBECDBF7C011B016A0195
S1131D00FC0117821682838181FF2AC39E012F5F03
S1131D103F4F3901F7019381F10193FD859193FFC1
S1131D2081911F01882309F417C3853239F493FD87
S1131D30859193FF81911F01853231F4B70190E0C1
S1131D40A8D456016501E6CF10E0512C912CFFE197
S1131D50F915D8F08B3279F038F4803279F0833287
S1131D60A1F4F92DF0612EC08D3261F0803369F455
S1131D70292D21602DC0392D3260932E892D846048
S1131D80982E2AC0E92DE86015C097FC2DC020EDDF
S1131D90280F2A3088F496FE06C03AE0139F200DDF
S1131DA01124122F19C08AE0589E200D1124522E9E
S1131DB0E92DE0629E2E10C08E3231F496FCCCC226
S1131DC0F92DF0649F2E08C08C3621F4292D20684B
S1131DD0922E02C0883641F4F10193FD859193FF60
S1131DE081911F018111B3CF9BEB980F933020F4A5
S1131DF0992D9061805E07C09BE9980F933008F09D
S1131E0059C1992D9F7E96FF16E09F73992E8536B2
S1131E1019F49064992E08C0863621F4392F30685D
S1131E20932E02C01111115097FE07C01C3350F4B9
S1131E3044244394410E27E00BC0183038F027E0C7
S1131E4017E005C027E09CE3492E02C0212F412C56
S1131E50560184E0A80EB11CF60160817181828173
S1131E609381042DA30127D36C01F981FC87F0FF32
S1131E7002C0F3FF06C091FC06C092FE06C000E259
S1131E8005C00DE203C00BE201C000E08C858C703C
S1131E9019F0011143C280C297FE10C04C0CFC859E
S1131EA0F4FF04C08A81813309F44A94141474F54C
S1131EB028E0241578F588E0482E2CC096FC2AC02A
S1131EC0812F90E08C159D059CF03CEFC3163FEFED
S1131ED0D30674F0892D8068982E0AC0E2E0F0E001
S1131EE0EC0FFD1FE10FF11D8081803319F41150B7
S1131EF01111F4CF97FE0EC044244394410E812F58
S1131F0090E0C816D9062CF41C1904C04424439448
S1131F1001C010E097FE06C01C141D0434F4C60171
S1131F20019605C085E090E002C081E090E00111D7
S1131F300196112331F0212F30E02F5F3F4F820FA4
S1131F40931F252D30E08217930714F4581A01C00B
S1131F50512C892D897041F4552031F0B70180E26C
S1131F6090E097D35A94F8CF002321F0B701802F43
S1131F7090E08FD393FC08C0552031F0B70180E383
S1131F8090E087D35A94F8CF97FE4AC04601D7FE13
S1131F9002C0812C912CC60188199909F301E80F1C
S1131FA0F91FFE87ED87960124193109388B2F8795
S1131FB0012F10E01195019511093FEF8316930647
S1131FC021F4B7018EE290E064D3C814D9044CF034
S1131FD08F8598898815990524F4ED85FE8581817E
S1131FE001C080E3F1E08F1A91082D853E852F5FB3
S1131FF03F4F3E872D878016910624F0B70190E06D
S113200048D3DBCFC814D90441F49A81963320F421
S1132010953319F43C8534FF81E3B70190E048C05F
S11320208A81813319F09C859F7E9C87B70190E05B
S113203030D3111105C094FC16C085E690E015C09C
S1132040B7018EE290E025D31E5F82E001E0080F25
S1132050F301E80FF11D8081B70190E01AD3802FBE
S11320600113F4CFE8CF85E490E0B70112D3D7FC95
S113207006C0C114D10441F4EC85E4FF05C0D19439
S1132080C194D1088DE201C08BE2B70190E001D385
S113209080E32AE0C216D1042CF08F5FFAE0CF1A55
S11320A0D108F7CFB70190E0F4D2B701C601C096CA
S11320B0F0D249C1833631F0833779F0833509F0A2
S11320C052C01FC0560132E0A30EB11CF60180813C
S11320D0898301E010E0630111C05601F2E0AF0E04
S11320E0B11CF601C080D18096FE03C0612F70E060
S11320F002C06FEF7FEFC601C1D28C01F92DFF77CB
S113210013C0560122E0A20EB11CF601C080D1809A
S113211096FE03C0612F70E002C06FEF7FEFC6012F
S1132120A2D28C01F92DF0689F2EF3FD18C0852DE5
S113213090E00817190798F4B70180E290E0A9D25B
S11321405A94F5CFF60197FC859197FE81916F0122
S1132150B70190E09ED251105A9401501109011513
S1132160110581F7F0C0843611F0893659F556010E
S113217097FE09C024E0A20EB11CF60160817181B2
S1132180828193810AC0F2E0AF0EB11CF601608136
S11321907181072E000C880B990BF92DFF769F2E69
S11321A097FF09C090958095709561957F4F8F4FEB
S11321B09F4FF0689F2E2AE030E0A301EED2C82E94
S11321C0C6183EC0092D853721F40F7E2AE030E081
S11321D01DC0097F8F3691F018F4883559F0BCC0C2
S11321E0803719F0883711F0B7C0006104FF09C0C7
S11321F0046007C094FE08C0066006C028E030E012
S113220005C020E130E002C020E132E0560107FFC2
S113221009C084E0A80EB11CF6016081718182813D
S1132220938108C0F2E0AF0EB11CF60160817181A8
S113223080E090E0A301B1D2C82EC6180F77902E8B
S113224096FE0BC0092D0E7FC11650F494FE0AC0F1
S113225092FC08C0092D0E7E05C0DC2C092D03C09C
S1132260DC2C01C0D12E04FF0DC0FE01EC0DF11DCC
S11322708081803311F4097E09C002FF06C0D39423
S1132280D39404C0802F867809F0D39403FD10C042
S113229000FF06C01C2DD51478F4150D1D190CC0B3
S11322A0D51450F4B70180E290E0F3D1D394F8CF81
S11322B0D51410F45D1801C0512C04FF0FC0B701F0
S11322C080E390E0E6D102FF16C001FD03C088E779
S11322D090E002C088E590E0B7010CC0802F8678BA
S11322E051F001FF02C08BE201C080E207FD8DE2E4
S11322F0B70190E0CED1C11630F4B70180E390E08D
S1132300C8D11150F8CFCA94F301EC0DF11D8081AE
S1132310B70190E0BED1C110F6CF15C0F4E0F515B9
S113232050F584E0581A93FE1EC0011125C02C8577
S113233023FF27C00EE011E0392D3071932EF801F0
S11323408491811121C0552009F4FCCCB70180E2AD
S113235090E09FD15A94F7CFF7018681978123C0EB
S11323608FEF9FEF20C0B70180E290E092D15A94A2
S11323705110F9CFDACF512CB701802F90E089D1D9
S1132380D6CF02E111E0D8CF91108052B70190E08E
S113239080D10F5F1F4FD3CF23E0251510F483E0C6
S11323A0C1CF512CC4CF60960FB6F894DEBF0FBED8
S11323B0CDBFDF91CF911F910F91FF90EF90DF90F0
S11323C0CF90BF90AF909F908F907F906F905F90D1
S11323D04F903F902F900895DB018F939F9352D09D
S11323E0BF91AF91A29F800D911DA39F900DB29FAD
S11323F0900D11240895A1E21A2EAA1BBB1BFD0106
S11324000DC0AA1FBB1FEE1FFF1FA217B307E407CF
S1132410F50720F0A21BB30BE40BF50B661F771F27
S1132420881F991F1A9469F7609570958095909507
S11324309B01AC01BD01CF010895052E97FB16F455
S113244000940FD057FD05D0D6DF07FC02D046F428
S113245008C050954095309521953F4F4F4F5F4FA1
S1132460089590958095709561957F4F8F4F9F4FFC
S11324700895EE0FFF1F0024001C0BBE0790F69179
S1132480E02D099409D0A59F900DB49F900DA49FB1
S1132490800D911D11240895A29FB001B39FC00126
S11324A0A39F700D811D1124911DB29F700D811D7C
S11324B01124911D0895283008F027E03327DA010C
S11324C0990F311D87FD916000966105710539F4FE
S11324D032602E5F3D9330E32A95E1F708959F3FE4
S11324E030F080387105610509F03C5F3C5F3D9335
S11324F0913008F08068911DDF93CF931F930F9361
S1132500FF92EF92192F987F9695E92F96959695BD
S1132510E90FFF27E059FE4F99273327EE24FF24C4
S1132520A701E70105900894079428F4360FE71EE5
S1132530F81E491F511D660F771F881F991F0694A7
S1132540A1F70590079428F4E70EF81E491F561FBB
S1132550C11D770F881F991F661F0694A1F7059068
S1132560079428F4F80E491F561FC71FD11D880F62
S1132570991F661F771F0694A1F70590079420F40E
S1132580490F561FC71FD81F990F661F771F881F33
S11325900694A9F784911095177041F0D695C795C4
S11325A057954795F794E7941A95C1F7E6E1F1E05A
S11325B068941590159135916591959105907FE2F8
S11325C07395E118F10A430B560BC90BD009C0F7F8
S11325D0E10CF11E431F561FC91FD01D7EF470333A
S11325E011F48A95E6CFE894015030F0080F0AF40C
S11325F00027021708F4202F2395022F7A3328F09E
S113260079E37D932A95E9F710C07D932A9589F69D
S1132610069497956795379517951794E118F10ADD
S1132620430B560BC90BD00998F023957E917395F3
S11326307A3308F070E37C932013B8F77E917061CD
S11326407D9330F0839571E37D9370E32A95E1F7F0
S11326501124EF90FF900F911F91CF91DF91992753
S113266087FD90950895FC0105906150704001101C
S1132670D8F7809590958E0F9F1F0895FC016150A7
S1132680704001900110D8F7809590958E0F9F1F90
S113269008950F931F93CF93DF93FB01238121FDB3
S11326A003C08FEF9FEF2CC022FF16C046815781D5
S11326B0248135814217530744F4A081B1819D01DF
S11326C02F5F3F4F318320838C93268137812F5F87
S11326D03F4F3783268314C08B01EC01FB01008438
S11326E0F185E02D0995892BE1F6D80116968D9197
S11326F09C911797019617969C938E931697CE01EB
S1132700DF91CF911F910F910895CF93DF93CDB7B0
S1132710DEB7AE014B5F5F4FFA0161917191AF017A
S113272080912D0190912E01CEDADF91CF91089501
S113273060912D0170912E01ACCF0F931F93CF9315
S1132740DF93E0912D01F0912E01238121FF1BC025
S11327508C01D0E0C0E0F80181918F0160912D01DE
S113276070912E01DB011896ED91FC911997882345
S113277031F00995892B79F3DFEFCFEFECCF8AE0C5
S11327800995892B19F08FEF9FEF02C08D2F9C2F95
S1132790DF91CF911F910F910895FA01AA27283054
S11327A051F1203181F1E8946F936E7F6E5F7F4F1A
S11327B08F4F9F4FAF4FB1E03ED0B4E03CD0670F96
S11327C0781F891F9A1FA11D680F791F8A1F911DE9
S11327D0A11D6A0F711D811D911DA11D20D009F439
S11327E068943F912AE0269F11243019305D31937B
S11327F0DEF6CF010895462F4770405D4193B3E064
S11328000FD0C9F7F6CF462F4F70405D4A3318F00A
S1132810495D31FD4052419302D0A9F7EACFB4E0BB
S1132820A6959795879577956795BA95C9F7009773
S11328306105710508959B01AC010A2E0694579514
S1132840479537952795BA95C9F7620F731F841F6B
S1132850951FA01D0895DC01CB01FC01E199FECF79
S113286006C0FFBBEEBBE09A31960DB20D9241500B
S11328705040B8F70895DC01CB0102C02D9105D07A
S113288041505040D8F70895262FE199FECF9FBBC1
S11328908EBB2DBB0FB6F894E29AE19A0FBE019657
S10928A00895F894FFCF37
S11328A60000000300000000EE02FB020000535487
S11128B6415254002564006300256C64000048
S9030000FC
