S010000070726F6A656374342E73726563E9
S1130000EDC000000DC1000034C100005BC1000060
S113001082C10000A9C10000D0C10000F7C10000E6
S11300201EC2000045C200006CC2000093C2000062
S1130030BAC20000E1C2000008C300002FC30000E0
S113004056C300007EC30000A6C30000CDC3000059
S1130050F5C300001CC4000043C400006AC40000CF
S113006091C40000B8C40000DFC4000006C500004D
S11300702DC5000054C500007CC50000A3C50000C8
S1130080CBC50000F2C5000019C600006E616E0009
S1130090696E660000407A10F35A00A0724E180987
S11300A00010A5D4E80000E87648170000E40B54DB
S11300B0020000CA9A3B000000E1F50500008096AA
S11300C09800000040420F000000A08601000000DC
S11300D0102700000000E803000000006400000096
S11300E000000A00000000000100000000002C765F
S11300F0D888DC674F0823DFC1DFAE59E1B1B7967A
S1130100E5E3E453C63AE651997696E8E6C28426D6
S1130110EB898C9B62ED407C6FFCEFBC9C9F40F2B2
S1130120BAA56FA5F490055A2AF75C936B6CF9672E
S11301306DC11BFCE0E40D47FEF520E6B500D0EDF3
S1130140902E0300943577050080841E080000205B
S11301504E0A000000C80C333333330F986E1283F9
S11301601141EF8D2114893BE65516CFFEE6DB18CD
S1130170D1844B381BF77C1D901DA4BBE424203292
S113018084725E228100C9F124ECA1E53D276364F9
S1130190696E6F70737578585B656667454647008E
S11301A0616E006E66696E69747900CDCCCC3D0ACF
S11301B0D7233C17B7D13877CC2B329595E6241F3B
S11301C0B14F0A000020410000C84200401C4620F4
S11301D0BCBE4CCA1B0E5AAEC59D740011241FBE72
S11301E0CFEFD0E1DEBFCDBF11E0A0E0B1E0EAE0A7
S11301F0F7E300E00BBF02C007900D92A83EB107E1
S1130200D9F723E0A8EEB1E001C01D92AC32B207E9
S1130210E1F70E94A60F0C94831B08950895FECF66
S11302201F920F920FB60F9211240BB60F922F93B9
S11302303F934F935F936F937F938F939F93AF936A
S1130240BF93EF93FF93EBDFFF91EF91BF91AF91DA
S11302509F918F917F916F915F914F913F912F91DA
S11302600F900BBE0F900FBE0F901F90189508951E
S1130270FECF1F920F920FB60F9211240BB60F925E
S11302802F933F934F935F936F937F938F939F939A
S1130290AF93BF93EF93FF93EBDFFF91EF91BF9188
S11302A0AF919F918F917F916F915F914F913F910A
S11302B02F910F900BBE0F900FBE0F901F901895AB
S11302C00895FECF1F920F920FB60F9211240BB612
S11302D00F922F933F934F935F936F937F938F93DB
S11302E09F93AF93BF93EF93FF93EBDFFF91EF9156
S11302F0BF91AF919F918F917F916F915F914F913A
S11303003F912F910F900BBE0F900FBE0F901F9037
S113031018950895FECF1F920F920FB60F921124D5
S11303200BB60F922F933F934F935F936F937F93EB
S11303308F939F93AF93BF93EF93FF93EBDFFF9163
S1130340EF91BF91AF919F918F917F916F915F9149
S11303504F913F912F910F900BBE0F900FBE0F90B6
S11303601F9018950895FECF1F920F920FB60F920B
S113037011240BB60F922F933F934F935F936F9378
S11303807F938F939F93AF93BF93EF93FF93EBDF91
S1130390FF91EF91BF91AF919F918F917F916F9159
S11303A05F914F913F912F910F900BBE0F900FBE15
S11303B00F901F9018950895FECF1F920F920FB6BD
S11303C00F9211240BB60F922F933F934F935F9389
S11303D06F937F938F939F93AF93BF93EF93FF9309
S11303E0EBDFFF91EF91BF91AF919F918F917F913F
S11303F06F915F914F913F912F910F900BBE0F9092
S11304000FBE0F901F9018950895FECF1F920F9264
S11304100FB60F9211240BB60F922F933F934F9365
S11304205F936F937F938F939F93AF93BF93EF9358
S1130430FF93EBDFFF91EF91BF91AF919F918F916C
S11304407F916F915F914F913F912F910F900BBED0
S11304500F900FBE0F901F9018950895FECF1F9216
S11304600F920FB60F9211240BB60F922F933F9356
S11304704F935F936F937F938F939F93AF93BF93A8
S1130480EF93FF93EBDFFF91EF91BF91AF919F91BA
S11304908F917F916F915F914F913F912F910F9029
S11304A00BBE0F900FBE0F901F9018950895FECFAE
S11304B01F920F920FB60F9211240BB60F922F9327
S11304C03F934F935F936F937F938F939F93AF93D8
S11304D0BF93EF93FF93EBDFFF91EF91BF91AF9148
S11304E09F918F917F916F915F914F913F912F9148
S11304F00F900BBE0F900FBE0F901F90189508958C
S1130500FECF1F920F920FB60F9211240BB60F92CB
S11305102F933F934F935F936F937F938F939F9307
S1130520AF93BF93EF93FF93EBDFFF91EF91BF91F5
S1130530AF919F918F917F916F915F914F913F9177
S11305402F910F900BBE0F900FBE0F901F90189518
S11305500895FECF1F920F920FB60F9211240BB67F
S11305600F922F933F934F935F936F937F938F9348
S11305709F93AF93BF93EF93FF93EBDFFF91EF91C3
S1130580BF91AF919F918F917F916F915F914F91A7
S11305903F912F910F900BBE0F900FBE0F901F90A5
S11305A018950895FECF1F920F920FB60F92112443
S11305B00BB60F922F933F934F935F936F937F9359
S11305C08F939F93AF93BF93EF93FF93EBDFFF91D1
S11305D0EF91BF91AF919F918F917F916F915F91B7
S11305E04F913F912F910F900BBE0F900FBE0F9024
S11305F01F9018950895FECF1F920F920FB60F9279
S113060011240BB60F922F933F934F935F936F93E5
S11306107F938F939F93AF93BF93EF93FF93EBDFFE
S1130620FF91EF91BF91AF919F918F917F916F91C6
S11306305F914F913F912F910F900BBE0F900FBE82
S11306400F901F9018950895FECF1F920F920FB62A
S11306500F9211240BB60F922F933F934F935F93F6
S11306606F937F938F939F93AF93BF93EF93FF9376
S1130670EBDFFF91EF91BF91AF919F918F917F91AC
S11306806F915F914F913F912F910F900BBE0F90FF
S11306900FBE0F901F9018950895FECF1F920F92D2
S11306A00FB60F9211240BB60F922F933F934F93D3
S11306B05F936F937F938F939F93AF93BF93EF93C6
S11306C0FF93EBDFFF91EF91BF91AF919F918F91DA
S11306D07F916F915F914F913F912F910F900BBE3E
S11306E00F900FBE0F901F9018950895FECF1F9284
S11306F00F920FB60F9211240BB60F922F933F93C4
S11307004F935F936F937F938F939F93AF93BF9315
S1130710EF93FF93EBDFFF91EF91BF91AF919F9127
S11307208F917F916F915F914F913F912F910F9096
S11307300BBE0F900FBE0F901F90189508950C9448
S11307409E0D1F920F920FB60F9211240BB60F92AB
S11307502F933F934F935F936F937F938F939F93C5
S1130760AF93BF93EF93FF93EADFFF91EF91BF91B4
S1130770AF919F918F917F916F915F914F913F9135
S11307802F910F900BBE0F900FBE0F901F901895D6
S113079008950C94EB0E1F920F920FB60F92112432
S11307A00BB60F922F933F934F935F936F937F9367
S11307B08F939F93AF93BF93EF93FF93EADFFF91E0
S11307C0EF91BF91AF919F918F917F916F915F91C5
S11307D04F913F912F910F900BBE0F900FBE0F9032
S11307E01F9018950895FECF1F920F920FB60F9287
S11307F011240BB60F922F933F934F935F936F93F4
S11308007F938F939F93AF93BF93EF93FF93EBDF0C
S1130810FF91EF91BF91AF919F918F917F916F91D4
S11308205F914F913F912F910F900BBE0F900FBE90
S11308300F901F90189508950C94E30E1F920F9239
S11308400FB60F9211240BB60F922F933F934F9331
S11308505F936F937F938F939F93AF93BF93EF9324
S1130860FF93EADFFF91EF91BF91AF919F918F9139
S11308707F916F915F914F913F912F910F900BBE9C
S11308800F900FBE0F901F9018950895FECF1F92E2
S11308900F920FB60F9211240BB60F922F933F9322
S11308A04F935F936F937F938F939F93AF93BF9374
S11308B0EF93FF93EBDFFF91EF91BF91AF919F9186
S11308C08F917F916F915F914F913F912F910F90F5
S11308D00BBE0F900FBE0F901F9018950895FECF7A
S11308E01F920F920FB60F9211240BB60F922F93F3
S11308F03F934F935F936F937F938F939F93AF93A4
S1130900BF93EF93FF93EBDFFF91EF91BF91AF9113
S11309109F918F917F916F915F914F913F912F9113
S11309200F900BBE0F900FBE0F901F901895089557
S1130930FECF1F920F920FB60F9211240BB60F9297
S11309402F933F934F935F936F937F938F939F93D3
S1130950AF93BF93EF93FF93EBDFFF91EF91BF91C1
S1130960AF919F918F917F916F915F914F913F9143
S11309702F910F900BBE0F900FBE0F901F901895E4
S11309800895FECF1F920F920FB60F9211240BB64B
S11309900F922F933F934F935F936F937F938F9314
S11309A09F93AF93BF93EF93FF93EBDFFF91EF918F
S11309B0BF91AF919F918F917F916F915F914F9173
S11309C03F912F910F900BBE0F900FBE0F901F9071
S11309D018950895FECF1F920F920FB60F9211240F
S11309E00BB60F922F933F934F935F936F937F9325
S11309F08F939F93AF93BF93EF93FF93EBDFFF919D
S1130A00EF91BF91AF919F918F917F916F915F9182
S1130A104F913F912F910F900BBE0F900FBE0F90EF
S1130A201F9018950895FECF1F920F920FB60F9244
S1130A3011240BB60F922F933F934F935F936F93B1
S1130A407F938F939F93AF93BF93EF93FF93EBDFCA
S1130A50FF91EF91BF91AF919F918F917F916F9192
S1130A605F914F913F912F910F900BBE0F900FBE4E
S1130A700F901F9018950895FECF1F920F920FB6F6
S1130A800F9211240BB60F922F933F934F935F93C2
S1130A906F937F938F939F93AF93BF93EF93FF9342
S1130AA0EBDFFF91EF91BF91AF919F918F917F9178
S1130AB06F915F914F913F912F910F900BBE0F90CB
S1130AC00FBE0F901F9018950895FECF1F920F929E
S1130AD00FB60F9211240BB60F922F933F934F939F
S1130AE05F936F937F938F939F93AF93BF93EF9392
S1130AF0FF93EBDFFF91EF91BF91AF919F918F91A6
S1130B007F916F915F914F913F912F910F900BBE09
S1130B100F900FBE0F901F9018950895FECF1F924F
S1130B200F920FB60F9211240BB60F922F933F938F
S1130B304F935F936F937F938F939F93AF93BF93E1
S1130B40EF93FF93EBDFFF91EF91BF91AF919F91F3
S1130B508F917F916F915F914F913F912F910F9062
S1130B600BBE0F900FBE0F901F90189508950C9414
S1130B70FB0E1F920F920FB60F9211240BB60F9219
S1130B802F933F934F935F936F937F938F939F9391
S1130B90AF93BF93EF93FF93EADFFF91EF91BF9180
S1130BA0AF919F918F917F916F915F914F913F9101
S1130BB02F910F900BBE0F900FBE0F901F901895A2
S1130BC00895FECF1F920F920FB60F9211240BB609
S1130BD00F922F933F934F935F936F937F938F93D2
S1130BE09F93AF93BF93EF93FF93EBDFFF91EF914D
S1130BF0BF91AF919F918F917F916F915F914F9131
S1130C003F912F910F900BBE0F900FBE0F901F902E
S1130C10189508950C94F30E1F920F920FB60F922D
S1130C2011240BB60F922F933F934F935F936F93BF
S1130C307F938F939F93AF93BF93EF93FF93EADFD9
S1130C40FF91EF91BF91AF919F918F917F916F91A0
S1130C505F914F913F912F910F900BBE0F900FBE5C
S1130C600F901F9018950895FECF1F920F920FB604
S1130C700F9211240BB60F922F933F934F935F93D0
S1130C806F937F938F939F93AF93BF93EF93FF9350
S1130C90EBDFFF91EF91BF91AF919F918F917F9186
S1130CA06F915F914F913F912F910F900BBE0F90D9
S1130CB00FBE0F901F9018950895FECF1F920F92AC
S1130CC00FB60F9211240BB60F922F933F934F93AD
S1130CD05F936F937F938F939F93AF93BF93EF93A0
S1130CE0FF93EBDFFF91EF91BF91AF919F918F91B4
S1130CF07F916F915F914F913F912F910F900BBE18
S1130D000F900FBE0F901F9018951BD03AD03DD076
S1130D1041E253E061E090E080E00C940A0FCF934D
S1130D20C82F8A3011F48DE0FADF5D9BFECFCCB979
S1130D3090E080E0CF9108955F9BFECF8CB190E06E
S1130D4008951092900081E189B98AB188618AB9C5
S1130D50E5E9F0E0808186608083E6E2F3E080E00C
S1130D6091E093838283918380830895883040F453
S1130D7098B39F7140E2849F90011124922B98BBF9
S1130D80089587B3806E87BB089587B3807F87609B
S1130D9087BB82E58DB908958FB9779BFECF8FB15C
S1130DA008955D9BFECF8CB908955F9BFECF8CB1F7
S1130DB008959F92AF92BF92CF92DF92EF92FF92EB
S1130DC00F931F93CF93DF93982ED62FE82FF0E045
S1130DD0E858FE4F0081609F80011124680184E07F
S1130DE0C80ED11CC1E0C90DC60FC00FC10F7A01D6
S1130DF0CA01800F911F5A01A816B90631F58CEA71
S1130E00D0DF8CEACEDF8CEACCDF8D2DCADF8C2DCF
S1130E10C8DF81E0C6DF892DC4DF8D2FC2DF812FBB
S1130E20C0DF802FBEDFEA14FB04A1F48C2FB9DFEE
S1130E3080E0DF91CF911F910F91FF90EF90DF90B1
S1130E40CF90BF90AF909F900895F50121915F01DD
S1130E50C20FD2CFF70181917F01E4CF8F929F928D
S1130E60AF92BF92CF92DF92EF92FF920F931F93B4
S1130E70CF93DF93882E962ED42F649FC001112424
S1130E80E82DF0E0E858FE4F4081489F8001499FDB
S1130E90100D1124780184E0E80EF11CC2E0C80DA5
S1130EA0CD0FC60FC00FC10F6901C901800F911F7B
S1130EB05901A816B90649F58CEA73DF8CEA71DF8B
S1130EC08CEA6FDF8F2D6DDF8E2D6BDF82E069DFA3
S1130ED0882D67DF892D65DF8D2F63DF812F61DF2B
S1130EE0802F5FDFCA14DB04A9F48C2F5ADF80E063
S1130EF0DF91CF911F910F91FF90EF90DF90CF90F2
S1130F00BF90AF909F908F900895F50121915F015C
S1130F10C20FCFCFF60181916F01E3CF5F926F9241
S1130F207F928F929F92AF92BF92CF92DF92EF9275
S1130F30FF920F931F93CF93DF937B01FC010190EA
S1130F400020E9F731974F01881A990A2FEF82168A
S1130F50910408F054C03401660E771EE4E06E0E6E
S1130F60711C23E0522E560E5F0C580CEC015C01F0
S1130F70A80CB91CFC01EA15FB0599F58A01CA0104
S1130F808E0D9F1D6A01C816D90671F58CEA09DF1A
S1130F908CEA07DF8CEA05DF872D03DF862D01DF6E
S1130FA083E0FFDE882DFDDECA15DB0511F58F2DEC
S1130FB0F8DE8E2DF6DE0C151D05E9F4852DF1DE27
S1130FC080E0DF91CF911F910F91FF90EF90DF9020
S1130FD0CF90BF90AF909F908F907F906F905F90D5
S1130FE008958191580EC7CFF60121916F01520ED9
S1130FF0CACF8991D8CFF80181918F01DBCF83E0EB
S1131000E0CFAF92BF92CF92DF92EF92FF920F9315
S11310101F93CF93DF93C82FF62ED42FC52EC5DE92
S11310208C3A69F0C1E08C2FDF91CF911F910F9121
S1131030FF90EF90DF90CF90BF90AF900895B5DE12
S11310408C3A81F7B2DE8C3A69F7AFDE082F10E0F4
S1131050102F0027AADE082B0430110558F1A5DE55
S1131060A82EA3DEB82EA1DEE82E9FDED82E9DDEAC
S113107091E0A9122BC0CB112FC0FE102FC0CF0DB1
S1131080CF5FCD0DC80FED2EFC2C1D2D082FD12CBC
S1131090C12CC016D10620F188DEC81751F1C4E076
S11310A0C2CF83DE8FEFE81AF80A0E151F05C9F7C1
S11310B07CDEB8CFF12CE12CF8CF77DEEFEFEE1A1F
S11310C0FE0AE016F106C8F370DEADCFC2E0F12CE3
S11310D0E12C05501109F5CFC3E0F9CFC4E0F7CFF7
S11310E064DEF70181937F01C80FFFEFCF1ADF0A97
S11310F0D0CFC0E098CF8F929F92AF92BF92CF9201
S1131100DF92EF92FF920F931F93CF93DF93082FF9
S1131110D62E142F790149DE8C3A79F011E0812F13
S1131120DF91CF911F910F91FF90EF90DF90CF90BF
S1131130BF90AF909F908F90089537DE8C3A71F7EF
S113114034DE8C3A59F731DEC82FD0E0DC2FCC27BF
S11311502CDEC82BC630D10580F127DE882E25DE93
S1131160982E23DEA82E21DEC82E1FDEB82E1DDE0B
S113117092E089122EC0091131C0DA1031C01C115D
S113118031C0C02FCD0DCE5FC10FCB0DC80F67018D
S11311901B2D082FF12CE12CE016F10628F105DEB9
S11311A014E0C813BCCF10E0BACFFFDD0F5F1F4FB0
S11311B0C017D107D1F7F9DDB1CF10E000E0F8CFC7
S11311C0F4DDEFEFEE1AFE0AEC16FD06C8F3EDDDD2
S11311D0A6CF12E0F12CE12C2697F6CF13E0FACF3C
S11311E014E0F8CF15E0F6CFE0DDF60181936F014E
S11311F0C80FFFEFEF1AFF0ACFCF8F929F92AF92E3
S1131200BF92CF92DF92EF92FF920F931F93CF93EF
S1131210DF93982E192F6A01C8DD8C3A79F011E01A
S1131220812FDF91CF911F910F91FF90EF90DF906D
S1131230CF90BF90AF909F908F900895B6DD8C3A79
S113124071F7B3DD8C3A59F7B0DDC82FD0E0DC2F4D
S1131250CC27ABDDC82BC230D10558F490E080E038
S113126003C0A3DD81E090E08C179D07D0F39DDDE2
S1131270D6CF9BDD833061F010E000E0219795DD4F
S11312800F5F1F4F0C171D07D0F38FDD12E0C8CF7F
S11312908CDD082FE92CF12EA92CB12E10E0892C1D
S11312A08A2D89198017E0F011112BC07EDDD82F0B
S11312B07CDDC82F9E0193E0900F8E2D8819801736
S11312C030F1CD0FC90F86017601E20EF31EE01650
S11312D0F10611F56ADD14E0C813A2CF10E0A0CF27
S11312E064DDF50191915F018917D1F213E0D8CF44
S11312F05CDDFFEFEF1AFF0AEC16FD06C8F355DDBF
S11313008FCFF12CE12C2197C01BD109F5CFF70128
S113131081917F01980FD1CF48DDF80181938F012E
S1131320C80FD5CFAF92BF92CF92DF92EF92FF92C8
S11313300F931F93CF93DF93CDB7DEB764970FB6A8
S1131340F894DEBF0FBECDBFB82EA62E6A011F9241
S11313506F9324E0829FC0011124825F9E4F9F936C
S11313608F9384E991E09F938F930E948C1A8E014E
S11313700F5F1F4F1F930F9380EAE82E81E0F82E32
S1131380FF92EF920E94D01A44E050E0B80183EA41
S113139091E00E94F9190FB6F894DEBF0FBECDBFDD
S11313A0892B29F4A6016A2D8B2D03DD0AC043E0A5
S11313B050E0B80188EA91E00E94F919892B91F074
S11313C080E064960FB6F894DEBF0FBECDBFDF9108
S11313D0CF911F910F91FF90EF90DF90CF90BF902E
S11313E0AF9008951F930F93FF92EF920E94D01A2B
S11313F044E050E0B80183EA91E00E94F9190F90AB
S11314000F900F900F90892BD9F683EA91E00E94F8
S1131410A01AC8CF9F92AF92BF92CF92DF92EF9261
S1131420FF920F931F93CF93DF93CDB7DEB76497EB
S11314300FB6F894DEBF0FBECDBFB82EA62E942EE5
S113144069011F924F931F926F9324E0829FC00102
S11314501124825F9E4F9F938F938CEA91E09F9318
S11314608F930E948C1A8E010F5F1F4F1F930F934F
S113147080EAE82E81E0F82EFF92EF920E94D01AC3
S113148044E050E0B80183EA91E00E94F9190FB6F4
S1131490F894DEBF0FBECDBF892B31F49601492DE0
S11314A06A2D8B2DDBDC0AC043E050E0B80188EAEA
S11314B091E00E94F919892B99F080E064960FB6A7
S11314C0F894DEBF0FBECDBFDF91CF911F910F9176
S11314D0FF90EF90DF90CF90BF90AF909F900895D2
S11314E01F930F93FF92EF920E94D01A44E050E0B2
S11314F0B80183EA91E00E94F9190F900F900F90C0
S11315000F90892BD1F683EA91E00E94A01AC6CFEE
S11315108F929F92AF92BF92CF92DF92EF92FF92FF
S11315200F931F93CF93DF93CDB7DEB764970FB6B6
S1131530F894DEBF0FBECDBF6C015B014A01DF92A0
S11315408F938BEB91E09F938F930E948C1A8E0163
S11315500F5F1F4F1F930F9380EAE82E81E0F82E50
S1131560FF92EF920E94D01A44E050E0B80183EA5F
S113157091E00E94F9190FB6F894DEBF0FBECDBFFB
S1131580892B29F4A401B501C601C8DC0AC043E0D3
S113159050E0B80188EA91E00E94F919892BA1F082
S11315A080E064960FB6F894DEBF0FBECDBFDF9126
S11315B0CF911F910F91FF90EF90DF90CF90BF904C
S11315C0AF909F908F9008951F930F93FF92EF9287
S11315D00E94D01A44E050E0B80183EA91E00E94EE
S11315E0F9190F900F900F900F90892BC9F683EA89
S11315F091E00E94A01AC6CFAF92BF92CF92DF9221
S1131600EF92FF920F931F93CF93DF93CDB7DEB783
S113161064970FB6F894DEBF0FBECDBFB82EA62ECA
S11316206A011F926F9324E0829FC0011124825F9C
S11316309E4F9F938F9384EC91E09F938F930E948E
S11316408C1A8E010F5F1F4F1F930F9380EAE82EB1
S113165081E0F82EFF92EF920E94D01A44E050E00D
S1131660B80183EA91E00E94F9190FB6F894DEBF3D
S11316700FBECDBF892B29F4A6016A2D8B2DC1DCA9
S11316800AC043E050E0B80188EA91E00E94F919E9
S1131690892B91F080E064960FB6F894DEBF0FBEFC
S11316A0CDBFDF91CF911F910F91FF90EF90DF900D
S11316B0CF90BF90AF9008951F930F93FF92EF9236
S11316C00E94D01A44E050E0B80183EA91E00E94FD
S11316D0F9190F900F900F900F90892BD9F683EA88
S11316E091E00E94A01AC8CF9F92AF92BF92CF926E
S11316F0DF92EF92FF920F931F93CF93DF93CDB7B7
S1131700DEB764970FB6F894DEBF0FBECDBFB82E18
S1131710A62E942E69011F924F931F926F9324E07B
S1131720829FC0011124825F9E4F9F938F9380ED0F
S113173091E09F938F930E948C1A8E010F5F1F4F2D
S11317401F930F9380EAE82E81E0F82EFF92EF9228
S11317500E94D01A44E050E0B80183EA91E00E946C
S1131760F9190FB6F894DEBF0FBECDBF892B31F443
S11317709601492D6A2D8B2DBEDC0AC043E050E052
S1131780B80188EA91E00E94F919892B99F080E068
S113179064960FB6F894DEBF0FBECDBFDF91CF9134
S11317A01F910F91FF90EF90DF90CF90BF90AF907B
S11317B09F9008951F930F93FF92EF920E94D01A67
S11317C044E050E0B80183EA91E00E94F9190F90D7
S11317D00F900F900F90892BD1F683EA91E00E942D
S11317E0A01AC6CF8F929F92AF92BF92CF92DF92F0
S11317F0EF92FF920F931F93CF93DF93CDB7DEB792
S113180064970FB6F894DEBF0FBECDBF6C015B01C9
S11318104A01DF928F938FED91E09F938F930E9403
S11318208C1A8E010F5F1F4F1F930F9380EAE82ECF
S113183081E0F82EFF92EF920E94D01A44E050E02B
S1131840B80183EA91E00E94F9190FB6F894DEBF5B
S11318500FBECDBF892B29F4A401B501C601CDDC8F
S11318600AC043E050E0B80188EA91E00E94F91907
S1131870892BA1F080E064960FB6F894DEBF0FBE0A
S1131880CDBFDF91CF911F910F91FF90EF90DF902B
S1131890CF90BF90AF909F908F9008951F930F9318
S11318A0FF92EF920E94D01A44E050E0B80183EA1C
S11318B091E00E94F9190F900F900F900F90892BCF
S11318C0C9F683EA91E00E94A01AC6CF87B3887F45
S11318D087BBBB9A80E48DB96F9A789408958FB9C9
S11318E008958FB1089542DAE2E6F0E080818F7EB8
S11318F0808308953BDAE2E6F0E0808180618083B2
S11319000895FF920F931F93CF93DF9300D000D0DD
S1131910CDB7DEB7182FF92E062F080FAE014F5F93
S11319205F4F62E370E080E090E0B1D2779B09C042
S1131930E12FFF2D8FB181930E1769F01E2FFF2E1B
S1131940EDCF69817A818B819C81B9D2882371F32F
S113195081E0809357010F900F900F900F90DF91CB
S1131960CF911F910F91FF900895CF93DF9300D0F3
S113197000D0CDB7DEB7AE014F5F5F4F62E370E0DA
S113198080E090E084D2779B02C08FB10BC0698164
S11319907A818B819C8193D28823A9F381E08093FF
S11319A0570180E00F900F900F900F90DF91CF912F
S11319B00895FF920F931F93CF93DF9300D000D02D
S11319C0CDB7DEB79C01F62EF80EF90181918F0197
S11319D08FB9AE014F5F5F4F62E370E080E090E04B
S11319E056D2779B04C09801F012EFCF0AC06981E8
S11319F07A818B819C8163D2882399F381E08093DF
S1131A0057010F900F900F900F90DF91CF911F917E
S1131A100F91FF900895CF93DF9300D000D0CDB7FE
S1131A20DEB78FB9AE014F5F5F4F62E370E080E0D5
S1131A3090E02DD277990AC069817A818B819C814B
S1131A403ED28823B9F381E0809357010F900F9021
S1131A500F900F90DF91CF910895DF92EF92FF9254
S1131A600F931F93CF93DF9300D000D0CDB7DEB791
S1131A70D62EE72E9C01F42EF80EF90181918F01E8
S1131A808FB9AE014F5F5F4F62E370E080E090E09A
S1131A90FED1779B0AC0ED2DFE2D8FB18193980165
S1131AA0F01669F0DE2EEF2EE8CF69817A818B8102
S1131AB09C8105D2882369F381E0809357010F90BC
S1131AC00F900F900F90DF91CF911F910F91FF9086
S1131AD0EF90DF900895CF93DF9300D000D0CDB77F
S1131AE0DEB78FB9AE014F5F5F4F62E370E080E015
S1131AF090E0CDD1779B02C08FB10BC069817A8110
S1131B008B819C81DCD18823A9F381E080935701E8
S1131B1080E00F900F900F900F90DF91CF91089578
S1131B2030D987B3876087BBBB98E1E6F0E080815A
S1131B30806180838DB183658DB90895E09138010A
S1131B40F0913901309709F00994089510929000AA
S1131B5081E189B98AB188618AB9E5E9F0E08081D7
S1131B6086608083579A08955D9BFECF8CB910924E
S1131B70E9010895680F792F711D8617970719F4E5
S1131B801092E90108955D9BFECFFC012191CF01E4
S1131B902CB9F3CF1092980081E180939900EAE97F
S1131BA0F0E0808188618083ADE9B0E08C9186604B
S1131BB08C93808180688083089590919B0095FF29
S1131BC0FCCF80939C001092E8010895680F792F50
S1131BD0711D8617970719F41092E8010895209152
S1131BE09B0025FFFCCFFC012191CF0120939C0099
S1131BF0F0CFCF92DF92EF92FF920F931F93CF9388
S1131C00DF9300D000D0CDB7DEB76C0110E000E068
S1131C10E62EF12C0E151F051CF01092E90120C0D0
S1131C20AE014F5F5F4F62E370E080E090E02FD140
S1131C305F9B08C08CB1F601E00FF11F80830F5F3A
S1131C401F4FE8CF69817A818B819C8138D18823A9
S1131C5079F381E08093E9010C0D1D1DF8011082D8
S1131C600F900F900F900F90DF91CF911F910F91D4
S1131C70FF90EF90DF90CF9008950F931F93CF9331
S1131C80DF9300D000D0CDB7DEB78C01AE014F5F3B
S1131C905F4F62E370E080E090E0F9D05F9B06C0A4
S1131CA08CB1F80180831092E9010CC069817A81BA
S1131CB08B819C8104D1882389F381E08093E9019D
S1131CC0F80110820F900F900F900F90DF91CF9139
S1131CD01F910F910895CF92DF92EF92FF920F938D
S1131CE01F93CF93DF9300D000D0CDB7DEB76C0144
S1131CF010E000E0E62EF12C0E151F051CF01092EA
S1131D00E80123C0AE014F5F5F4F62E370E080E003
S1131D1090E0BDD080919B0087FF09C080919C001A
S1131D20F601E00FF11F80830F5F1F4FE5CF69813C
S1131D307A818B819C81C3D0882361F381E0809375
S1131D40E8010C0D1D1DF80110820F900F900F90EB
S1131D500F90DF91CF911F910F91FF90EF90DF9043
S1131D60CF9008950F931F93CF93DF9300D000D0AB
S1131D70CDB7DEB78C01AE014F5F5F4F62E370E019
S1131D8080E090E084D080919B0087FF07C0809121
S1131D909C00F80180831092E8010CC069817A816B
S1131DA08B819C818CD0882371F381E08093E8013E
S1131DB0F80110820F900F900F900F90DF91CF9148
S1131DC01F910F910895E0916A01F0916B01309792
S1131DD009F009940895E0916C01F0916D01309738
S1131DE009F009940895E0915A01F0915B0130974C
S1131DF009F009940895E0915C01F0915D01309738
S1131E0009F0099408959C01CA01462F50E0B901D4
S1131E100C946D1B9C01CA01462F50E0B9010C942F
S1131E205D1B10922203109223031092240310923C
S1131E302503089560912203709123038091240364
S1131E40909125030895CF92DF92EF92FF92CF9362
S1131E50DF93EA01C0902203D0902303E09024038F
S1131E60F090250328EE33E040E050E00E94D918BA
S1131E70C20ED31EE41EF51EC882D982EA82FB82FA
S1131E80DF91CF91FF90EF90DF90CF9008950F9363
S1131E901F93009122031091230320912403309176
S1131EA02503DC01CB01800F911FA21FB31FFA0190
S1131EB080839183A283B3831F910F9108950F931D
S1131EC01F93009122031091230320912403309146
S1131ED0250341E0601771078207930708F040E08B
S1131EE0842F1F910F9108950F931F930091220344
S1131EF0109123032091240330912503600F711F57
S1131F00821F931F00912203109123032091240325
S1131F1030912503061717072807390798F31F91EF
S1131F200F9108958091220390912303A09124039B
S1131F30B09125030196A11DB11D809322039093B6
S1131F402303A0932403B093250308954F925F9233
S1131F506F927F928F929F92AF92BF92CF92DF92B5
S1131F60EF92FF920F931F93CF93DF930E94850606
S1131F700F2EFFE9AF2EF2E0BF2EF02D01E213E0A9
S1131F80E501AE016AE170E082E891E02BDC6A963B
S1131F900C171D07B1F707E013E06894EE24E2F88C
S1131FA0F12C3EC09E01688D798D4F5F5F4FCAA8AA
S1131FB0DBA8C616D7060CF5FE017A96CE018E96DE
S1131FC0DE019C9080808D929192E817F907C9F701
S1131FD0F90184899589A689B78946A457A460A87C
S1131FE071A8448A558A668A778A86A797A7A0AB80
S1131FF0B1ABD18EC08E73AB62AB6A964E155F05E2
S11320008CF2A8016AE170E082E891E081DAF1E003
S1132010EF1AF1080A5111098FEFE816F80621F0BA
S1132020E50140E050E0EACF80E090E0DF91CF911D
S11320301F910F91FF90EF90DF90CF90BF90AF90E2
S11320409F908F907F906F905F904F9008952F9204
S11320503F924F925F926F927F928F929F92AF9234
S1132060BF92CF92DF92EF92FF920F931F93CF9381
S1132070DF93CDB7DEB760970FB6F894DEBF0FBE1F
S1132080CDBF7C011B016A01FC011782168283818A
S113209081FF3AC39E012F5F3F4F3901F7019381BE
S11320A0F10193FD859193FF81911F01882309F428
S11320B027C3853239F493FD859193FF81911F01E4
S11320C0853239F4B70190E00E94501A5601650137
S11320D0E5CF10E0512C912CFFE1F915D8F08B32AB
S11320E079F038F4803279F08332A1F4F92DF0617B
S11320F02EC08D3261F0803369F4292D21602DC00A
S1132100392D3260932E892D8460982E2AC0E92DB2
S1132110E86015C097FC2DC020ED280F2A3088F404
S113212096FE06C03AE0139F200D1124122F19C009
S11321308AE0589E200D1124522EE92DE0629E2E35
S113214010C08E3231F496FCDBC2F92DF0649F2E60
S113215008C08C3621F4292D2068922E02C08836BE
S113216041F4F10193FD859193FF81911F01811148
S1132170B3CF9BEB980F933020F4992D9061805E40
S113218007C09BE9980F933008F066C1992D9F7E94
S113219096FF16E09F73992E853619F49064992E54
S11321A008C0863621F4392F3068932E02C01111ED
S11321B0115097FE07C01C3350F444244394410E3D
S11321C027E00BC0183038F027E017E005C027E0FF
S11321D09CE3492E02C0212F412C560184E0A80E15
S11321E0B11CF6016081718182819381042DA30168
S11321F00E94FB186C01F981FC87F0FF02C0F3FF19
S113220006C091FC06C092FE06C000E205C00DE2C5
S113221003C00BE201C000E08C858C7019F0011141
S113222051C28EC297FE10C04C0CFC85F4FF04C052
S11322308A81813309F44A94141474F528E024152E
S113224078F588E0482E2CC096FC2AC0812F90E0B7
S11322508C159D059CF03CEFC3163FEFD30674F03C
S1132260892D8068982E0AC0E2E0F0E0EC0FFD1F93
S1132270E10FF11D8081803319F411501111F4CF55
S113228097FE0EC044244394410E812F90E0C8165B
S1132290D9062CF41C1904C04424439401C010E052
S11322A097FE06C01C141D0434F4C601019605C033
S11322B085E090E002C081E090E0011101961123D5
S11322C031F0212F30E02F5F3F4F820F931F252DD8
S11322D030E08217930714F4581A01C0512C892D49
S11322E0897049F4552039F0B70180E290E00E94EA
S11322F0501A5A94F7CF002329F0B701802F90E0A9
S11323000E94501A93FC09C0552039F0B70180E3AC
S113231090E00E94501A5A94F7CF97FE4CC04601A1
S1132320D7FE02C0812C912CC60188199909F301AA
S1132330E80FF91FFE87ED87960124193109388BC0
S11323402F87012F10E01195019511093FEF831696
S1132350930629F4B7018EE290E00E94501AC81443
S1132360D9044CF08F8598898815990524F4ED8556
S1132370FE85818101C080E3F1E08F1A91082D85EB
S11323803E852F5F3F4F3E872D87801691062CF0A8
S1132390B70190E00E94501AD9CFC814D90441F46F
S11323A09A81963320F4953319F43C8534FF81E304
S11323B0B70190E04EC08A81813319F09C859F7EDD
S11323C09C87B70190E00E94501A111105C094FC3B
S11323D018C085E690E017C0B7018EE290E00E9435
S11323E0501A1E5F82E001E0080FF301E80FF11DAF
S11323F08081B70190E00E94501A802F0113F3CF1F
S1132400E6CF85E490E0B7010E94501AD7FC06C0DD
S1132410C114D10441F4EC85E4FF05C0D194C19406
S1132420D1088DE201C08BE2B70190E00E94501AFE
S113243080E32AE0C216D1042CF08F5FFAE0CF1AB1
S1132440D108F7CFB70190E00E94501AB701C60136
S1132450C0960E94501A4BC1833631F0833779F00D
S1132460833509F052C01FC0560132E0A30EB11CDF
S1132470F6018081898301E010E0630111C05601F7
S1132480F2E0AF0EB11CF601C080D18096FE03C00D
S1132490612F70E002C06FEF7FEFC601B8D78C01E7
S11324A0F92DFF7713C0560122E0A20EB11CF601EC
S11324B0C080D18096FE03C0612F70E002C06FEF30
S11324C07FEFC6018BD78C01F92DF0689F2EF3FDA9
S11324D018C0852D90E00817190798F4B70180E219
S11324E090E0DED75A94F5CFF60197FC859197FEDC
S11324F081916F01B70190E0D3D751105A940150E4
S113250011090115110581F7F2C0843611F08936DD
S113251061F5560197FE09C024E0A20EB11CF60134
S113252060817181828193810AC0F2E0AF0EB11C97
S1132530F60160817181072E000C880B990BF92D2F
S1132540FF769F2E97FF09C09095809570956195B1
S11325507F4F8F4F9F4FF0689F2E2AE030E0A301FA
S11325600E94FC1AC82EC6183FC0092D853721F4D5
S11325700F7E2AE030E01DC0097F8F3691F018F4F9
S1132580883559F0BDC0803719F0883711F0B8C0CC
S1132590006104FF09C0046007C094FE08C006601F
S11325A006C028E030E005C020E130E002C020E1B0
S11325B032E0560107FF09C084E0A80EB11CF60101
S11325C0608171818281938108C0F2E0AF0EB11CF9
S11325D0F6016081718180E090E0A3010E94FC1A01
S11325E0C82EC6180F77902E96FE0BC0092D0E7FAD
S11325F0C11650F494FE0AC092FC08C0092D0E7E48
S113260005C0DC2C092D03C0DC2C01C0D12E04FF35
S11326100DC0FE01EC0DF11D8081803311F4097EA3
S113262009C002FF06C0D394D39404C0802F8678D7
S113263009F0D39403FD10C000FF06C01C2DD5146F
S113264078F4150D1D190CC0D51450F4B70180E2AF
S113265090E026D7D394F8CFD51410F45D1801C0B8
S1132660512C04FF0FC0B70180E390E019D702FF9B
S113267016C001FD03C088E790E002C088E590E041
S1132680B7010CC0802F867851F001FF02C08BE2A5
S113269001C080E207FD8DE2B70190E001D7C116C9
S11326A030F4B70180E390E0FBD61150F8CFCA9420
S11326B0F301EC0DF11D8081B70190E0F1D6C1105A
S11326C0F6CF15C0F4E0F51550F584E0581A93FEE2
S11326D01EC0011125C02C8523FF27C00CE810E083
S11326E0392D3071932EF8018491811121C0552028
S11326F009F4EDCCB70180E290E0D2D65A94F7CF3A
S1132700F7018681978123C08FEF9FEF20C0B70127
S113271080E290E0C5D65A945110F9CFDACF512C0B
S1132720B701802F90E0BCD6D6CF00E910E0D8CF17
S113273091108052B70190E0B3D60F5F1F4FD3CFF3
S113274023E0251510F483E0C1CF512CC4CF60964B
S11327500FB6F894DEBF0FBECDBFDF91CF911F91AE
S11327600F91FF90EF90DF90CF90BF90AF909F902C
S11327708F907F906F905F904F903F902F9008952F
S113278020FD09C0FC0123FD05C022FF02C07383A4
S1132790628351834083089544FD17C046FD17C0EA
S11327A0AB01BC01DA01FB01AA0FBB1FEE1FFF1F27
S11327B01094D1F74A0F5B1F6E1F7F1FCB01BA0124
S11327C0660F771F881F991F09C033E001C034E0EA
S11327D0660F771F881F991F3150D1F7620F711D43
S11327E0811D911D08950F931F93CF93DF938C0147
S11327F0C80118D6EC0197FD06C0D5D5892BC1F7C1
S1132800B801CE01E0D6CE01DF91CF911F910F9197
S113281008958F929F92AF92BF92CF92DF92EF92E0
S1132820FF920F931F93CF93DF937C018B016A0177
S1132830D22FF8D59C0133272B32310521F02D32CC
S1132840310551F4D0680150110911F480E064C0DD
S1132850C701E8D597FDFACFCD2FCD7F2D2F20735B
S113286009F58033F9F4580181E0A81AB10809F494
S113287040C0C701D7D597FD3CC09C012F7D3327AD
S11328802835310549F4C2640250110991F1C70198
S1132890C9D597FF07C02DC0D6FF02C0C26001C0D2
S11328A0C2618501812C912C540120ED280F283020
S11328B078F0C4FF03C0B70186D618C02A3040F0B0
S11328C0C6FFF9CF2F7D3FEE320F3630A0F72750E9
S11328D04C2FC501B40160DF4B015C01C2600150A3
S11328E0110951F0C7019ED597FFDFCFC1FD04C088
S11328F0ADCF812C912C5401C7FF08C0B094A09493
S113290090948094811C911CA11CB11C2C2FB501A6
S1132910A401C60135DF81E0DF91CF911F910F91B2
S1132920FF90EF90DF90CF90BF90AF909F908F90EB
S113293008954F925F926F927F928F929F92AF927F
S1132940BF92CF92DF92EF92FF920F931F93CF9398
S1132950DF93CDB7DEB7A0970FB6F894DEBF0FBEF6
S1132960CDBF5C014B017A018E010F5F1F4F6801DF
S113297080E2F80111928A95E9F7F501538040E06D
S113298050E0612C90E0712CA1E0B0E0F90153FC1F
S1132990859153FE81918F01482E9F01811103C0BF
S11329A080E090E094C08E3519F44115510551F141
S11329B0672D70E0641775073CF48D3561F18D3235
S11329C019F4992311F103C0992309F46BC0842DE0
S11329D0869586958695F601E80FF11D842D8770FE
S11329E08D0102C0000F111F8A95E2F7C801908182
S11329F0892B8083641459F0461410F44394E7CF70
S1132A004A94E5CF7724739403C091E001C090E029
S1132A104F5F5F4FBBCF992319F08E8180628E8305
S1132A20711003C07724739419C0F6019E012F5DC1
S1132A303F4F8081809581932E173F07D1F7F2CFC6
S1132A40E114F10431F0F7018083B7016F5F7F4F28
S1132A507B0171E0871A9108712CE9F0C501E2D479
S1132A6097FD17C0FC01FF2723E0F595E7952A950C
S1132A70E1F7EC0DFD1D208130E0AC0147705527D6
S1132A8002C0359527954A95E2F720FDD9CFB501C7
S1132A909AD5711085CFE114F10411F0F701108279
S1132AA0C80115C0682F669566956695F601E60F10
S1132AB0F11D682F67708D0102C0000F111F6A9508
S1132AC0E2F7B8017081672B6083682EA1CFA096CE
S1132AD00FB6F894DEBF0FBECDBFDF91CF911F912B
S1132AE00F91FF90EF90DF90CF90BF90AF909F90A9
S1132AF08F907F906F905F904F9008952F923F92A8
S1132B004F925F926F927F929F92AF92BF92CF92B9
S1132B10DF92EF92FF920F931F93CF93DF936C0199
S1132B208B011A017FD4EC0199278B32910529F08E
S1132B308D9779F430E8932E01C0912C015011093E
S1132B4011F480E0FEC0C6016DD4EC0197FF02C011
S1132B50F8CF912CCE012FD48936910531F08E36E1
S1132B60910581F5C0EAD1E002C0C3EAD1E0219623
S1132B70FE013197B490BB20B1F00150110979F0F6
S1132B80C60150D47C0197FD0AC015D49927EB2DBA
S1132B90F0E08E179F0759F3B601C70114D5C65A42
S1132BA0D14079F603C0C35AD14029F080E090E0C7
S1132BB0A0E8BFE704C080E090E0A0ECBFE7BC0160
S1132BC0CD01AFC0412C512C3201E12CF12C2C2F22
S1132BD020532A3008F5E92DE260BE2E892D887035
S1132BE092FE06C081111FC0FFEFEF1AFF0A1BC03F
S1132BF0882319F081E0E81AF10840E2C301B20128
S1132C00CBDD2B013C01683979498949994158F058
S1132C10F92DF660BF2E07C02E3F81F493FC0EC041
S1132C20292D2860B22E0150110939F0C601FAD3BA
S1132C30EC019B2C97FFCBCF01C09B2C91FE81CF45
S1132C40CE018F7D99278534910509F03EC0580146
S1132C5081E0A81AB10809F474CFC601E3D3EC01EA
S1132C6097FD6FCF99278B32910529F08D9761F4E9
S1132C70E92DE0619E2E5801F2E0AF1AB10809F483
S1132C8060CFC601CFD3EC01CE01C0970A9708F0FC
S1132C9058CF8501A12CB12CB501BB0C880B990B25
S1132CA02C2F205340E278DD5B010150110931F0F3
S1132CB0C601B8D3EC01C0970A9770F394FE03C021
S1132CC0B194A194B108EA0CFB1C012B29F0D7FDA7
S1132CD003C0B601CE0177D4C301B20179D1F7FEA6
S1132CE006C0F194E194F108CFEBD1E002C0C7ED46
S1132CF0D1E06E0128E1C21AD10800E210E0E0162A
S1132D00F10648F0FE0125913591459154919DD1EC
S1132D10E01AF10AF4CF249716950795CC16DD0630
S1132D2071F797FE05C0DC01CB01B058BC01CD01A1
S1132D302114310429F0F101608371838283938328
S1132D4081E0DF91CF911F910F91FF90EF90DF9081
S1132D50CF90BF90AF909F907F906F905F904F9077
S1132D603F902F9008956F927F928F929F92AF928F
S1132D70BF92CF92DF92EF92FF920F931F93CF9364
S1132D80DF935C01EB014A01FC0117821682612C7E
S1132D90F5010381FE0103FD859103FF8191182F45
S1132DA0EF01882309F400C190E0FDD2892B19F0CA
S1132DB0C50119DDEDCF153241F4FE0103FD159176
S1132DC003FF1191EF01153271F4C5012BD397FD67
S1132DD0E9C0412F50E09C01332724173507C1F285
S1132DE0B501F1D3E1C01A3241F403FD159103FF9B
S1132DF01191EF017724739401C0712CE12CF12C13
S1132E0020ED210F2A3080F4F72DF2607F2EB701D8
S1132E1080E090E040E2C0DC7B01FE0103FD1591FF
S1132E2003FF1191EF01ECCF71FE04C0E114F10432
S1132E3021F4BAC0EE24EA94FE2C183619F01C369C
S1132E4061F014C0FE0103FD159103FF1191EF0120
S1132E50183661F4872D8860782E972D9460792E2A
S1132E60FE0103FD159103FF1191EF01112309F4F4
S1132E709BC0612F70E08EE891E0A5D2892B09F404
S1132E8093C070FC07C0F401C080D180C4010296D5
S1132E904C0102C0C12CD12C1E3649F4F5014681E7
S1132EA0578160E070E0272DC6016ADC71CF1336CC
S1132EB0B1F471FC03C0EE24E394F12CC501B2D249
S1132EC097FD70C0C114D10429F0F6018083C601B6
S1132ED001966C0191E0E91AF10881F75FC01B3596
S1132EE051F49E01A601B701C50123DDEC01892B34
S1132EF009F054C04EC0C50176DC97FD53C01F369F
S1132F00C9F140F4143691F11936B9F1183509F0C4
S1132F103AC028C01337A9F018F4103719F133C098
S1132F20153721F11837F1F02EC0C114D10429F05E
S1132F30F6010083C60101966C0191E0E91AF108DB
S1132F4059F0C5016FD28C0197FD06C02CD2892B94
S1132F5061F3B501C80137D3C114D104F9F0F60106
S1132F6010821CC0F72DF0647F2E07C0872D80626D
S1132F70782E03C0972D9061792E272DA601B701D5
S1132F80C50147DC04C0A601B701C501B7DD811145
S1132F9005C0F5018381807329F406C070FCF8CE66
S1132FA06394F6CE662019F0862D90E002C08FEF70
S1132FB09FEFDF91CF911F910F91FF90EF90DF90E2
S1132FC0CF90BF90AF909F908F907F906F90089517
S1132FD0E89409C097FB3EF49095809570956195AF
S1132FE07F4F8F4F9F4F9923A9F0F92F96E9BB2765
S1132FF09395F695879577956795B795F111F8CFE1
S1133000FAF4BB0F11F460FF1BC06F5F7F4F8F4F4B
S11330109F4F16C0882311F096E911C0772321F041
S11330209EE8872F762F05C0662371F096E8862FD9
S113303070E060E02AF09A95660F771F881FDAF730
S1133040880F9695879597F908950BD078C069D025
S113305028F06ED018F0952309F05AC05FC01124EF
S1133060A2C07ED0A0F3959FD1F3950F50E0551FD9
S1133070629FF001729FBB27F00DB11D639FAA27C9
S1133080F00DB11DAA1F649F6627B00DA11D661F18
S1133090829F2227B00DA11D621F739FB00DA11D39
S11330A0621F839FA00D611D221F749F3327A00DF3
S11330B0611D231F849F600D211D822F762F6A2F8F
S11330C011249F5750408AF0E1F088234AF0EE0F14
S11330D0FF1FBB1F661F771F881F91505040A9F721
S11330E09E3F510570F014C05EC05F3FECF3983E04
S11330F0DCF3869577956795B795F795E7959F5F88
S1133100C1F7FE2B880F911D9695879597F9089521
S113311097F99F6780E870E060E008959FEF80EC86
S1133120089500240A941616170618060906089529
S113313000240A9412161306140605060895092E8F
S11331400394000C11F4882352F0BB0F40F4BF2BFE
S113315011F460FF04C06F5F7F4F8F4F9F4F08953E
S113316057FD9058440F551F59F05F3F71F0479534
S1133170880F97FB991F61F09F3F79F08795089519
S1133180121613061406551FF2CF4695F1DF08C038
S1133190161617061806991FF1CF86957105610555
S11331A008940895E894BB2766277727CB0197F9FD
S11331B00895A1E21A2EAA1BBB1BFD010DC0AA1F74
S11331C0BB1FEE1FFF1FA217B307E407F50720F08C
S11331D0A21BB30BE40BF50B661F771F881F991F07
S11331E01A9469F760957095809590959B01AC0150
S11331F0BD01CF010895283008F027E03327DA0114
S1133200990F311D87FD916000966105710539F4B0
S113321032602E5F3D9330E32A95E1F708959F3F96
S113322030F080387105610509F03C5F3C5F3D93E7
S1133230913008F08068911DDF93CF931F930F9313
S1133240FF92EF92192F987F9695E92F9695969570
S1133250E90FFF27E251FF4F99273327EE24FF247C
S1133260A701E70105900894079428F4360FE71E98
S1133270F81E491F511D660F771F881F991F06945A
S1133280A1F70590079428F4E70EF81E491F561F6E
S1133290C11D770F881F991F661F0694A1F705901B
S11332A0079428F4F80E491F561FC71FD11D880F15
S11332B0991F661F771F0694A1F70590079420F4C1
S11332C0490F561FC71FD81F990F661F771F881FE6
S11332D00694A9F784911095177041F0D695C79577
S11332E057954795F794E7941A95C1F7E4E9F0E008
S11332F068941590159135916591959105907FE2AB
S11333007395E118F10A430B560BC90BD009C0F7AA
S1133310E10CF11E431F561FC91FD01D7EF47033EC
S113332011F48A95E6CFE894015030F0080F0AF4BE
S11333300027021708F4202F2395022F7A3328F050
S113334079E37D932A95E9F710C07D932A9589F650
S1133350069497956795379517951794E118F10A90
S1133360430B560BC90BD00998F023957E917395A6
S11333707A3308F070E37C932013B8F77E91706180
S11333807D9330F0839571E37D9370E32A95E1F7A3
S11333901124EF90FF900F911F91CF91DF91992706
S11333A087FD90950895911185C1803219F0895057
S11333B08550D0F708959111089581548A5108F4E5
S11333C0805E855A0895FC010590061621F00020C0
S11333D0D9F7C00108953197CF010895FC010590F4
S11333E0615070400110D8F7809590958E0F9F1F03
S11333F00895FB01DC014150504030F08D91019063
S1133400801919F40020B9F7881B990B0895FC0161
S11334106150704001900110D8F7809590958E0FFF
S11334209F1F0895CF93DF93EC012B8120FF33C0BE
S113343026FF0AC02F7B2B838E819F8101969F8359
S11334408E838A8190E029C022FF0FC0E881F98130
S11334508081082E000C990B009719F420622B83AD
S11334601AC03196F983E8830EC0EA85FB85099575
S113347097FF09C02B81019611F080E201C080E121
S1133480822B8B8308C02E813F812F5F3F4F3F8368
S11334902E83992702C08FEF9FEFDF91CF9108957C
S11334A00F931F93CF93DF93FB01238121FD03C06F
S11334B08FEF9FEF2CC022FF16C0468157812481D5
S11334C035814217530744F4A081B1819D012F5FD8
S11334D03F4F318320838C93268137812F5F3F4F69
S11334E03783268314C08B01EC01FB010084F18532
S11334F0E02D0995892BE1F6D80116968D919C91C2
S11335001797019617969C938E931697CE01DF9189
S1133510CF911F910F910895CF93DF93CDB7DEB76D
S1133520AE014B5F5F4FFA0161917191AF018091E0
S11335302803909129030E942710DF91CF910895C9
S11335400F931F93CF93DF93E0912803F091290306
S1133550238121FF1BC08C01D0E0C0E0F8018191E0
S11335608F016091280370912903DB011896ED9176
S1133570FC911997882331F00995892B79F3DFEFB2
S1133580CFEFECCF8AE00995892B19F08FEF9FEFED
S113359002C08D2F9C2FDF91CF911F910F91089521
S11335A0CF93DF93CDB7DEB7AE014B5F5F4FFA0128
S11335B061917191AF018091260390912703D3DB30
S11335C0DF91CF910895FB01238120FF12C026FDD6
S11335D010C08F3F3FEF930761F082832F7D2064FB
S11335E02383268137812150310937832683992704
S11335F008958FEF9FEF0895FA01AA27283051F11B
S1133600203181F1E8946F936E7F6E5F7F4F8F4F0F
S11336109F4FAF4FB1E03ED0B4E03CD0670F781F6E
S1133620891F9A1FA11D680F791F8A1F911DA11D53
S11336306A0F711D811D911DA11D20D009F468948C
S11336403F912AE0269F11243019305D3193DEF634
S1133650CF010895462F4770405D4193B3E00FD0EA
S1133660C9F7F6CF462F4F70405D4A3318F0495DD5
S113367031FD4052419302D0A9F7EACFB4E0A695B8
S11336809795879577956795BA95C9F700976105DA
S1133690710508959B01AC010A2E06945795479530
S11336A037952795BA95C9F7620F731F841F951F25
S11336B0A01D0895992788270895DC01CB01FC01FA
S11336C0E199FECF06C0FFBBEEBBE09A31960DB286
S11336D00D9241505040B8F70895DC01CB0102C06F
S11336E02D9105D041505040D8F70895262FE199E7
S11336F0FECF9FBB8EBB2DBB0FB6F894E29AE19A26
S10D37000FBE01960895F894FFCF60
S113370A00000003000000008F069C0600006938D0
S113371A000069313600693332006936340075694C
S113372A38007569313675693332756936346633EA
S113373A320066363400660C00006F0C710C00000F
S113374A000000900D6B0D2D0D00000B0DD90CB56A
S113375A0C810C7A0C730C00CA0D00000000DD0DFC
S113376AE60DB20E6B0EE801A60D00000000B40DC2
S113377ABA0D3D0EF90DE90101020408010204081B
S113378A040869385F32302C6933325F312C69316D
S113379A365F31007E47412C2025735F25640A0079
S11337AA2573007E41434B007E425A007E474D2CCE
S11337BA2025735F25647825640A007E47532C20EC
S11337CA25730A007E50412C2025735F25640A0064
S11337DA7E504D2C2025735F25647825640A007E6B
S10B37EA50532C2025730A0042
S9030000FC
