:10000000CDC00000E9C00000E7C00000E5C000006E
:10001000E3C00000E1C00000DFC00000DDC0000060
:10002000DBC00000D9C00000D7C00000D5C0000070
:10003000D3C00000D1C00000CFC00000CDC0000080
:10004000CBC00000C9C00000C7C00000C5C0000090
:10005000C3C00000C1C00000BFC00000BDC00000A0
:10006000BBC00000B9C00000B7C00000B5C00000B0
:10007000B3C00000B1C00000AFC00000ADC00000C0
:10008000ABC00000A9C00000A7C000006E616E00F8
:10009000696E660000407A10F35A00A0724E18098B
:1000A0000010A5D4E80000E87648170000E40B54DF
:1000B000020000CA9A3B000000E1F50500008096AE
:1000C0009800000040420F000000A08601000000E0
:1000D000102700000000E80300000000640000009A
:1000E00000000A00000000000100000000002C7663
:1000F000D888DC674F0823DFC1DFAE59E1B1B7967E
:10010000E5E3E453C63AE651997696E8E6C28426DA
:10011000EB898C9B62ED407C6FFCEFBC9C9F40F2B6
:10012000BAA56FA5F490055A2AF75C936B6CF96732
:100130006DC11BFCE0E40D47FEF520E6B500D0EDF7
:10014000902E0300943577050080841E080000205F
:100150004E0A000000C80C333333330F986E1283FD
:100160001141EF8D2114893BE65516CFFEE6DB18D1
:10017000D1844B381BF77C1D901DA4BBE424203296
:1001800084725E228100C9F124ECA1E53D278E0234
:1001900092029402960298029A029C0211241FBEB7
:1001A000CFEFD0E1DEBFCDBF11E0A0E0B1E0E2E5EE
:1001B000F4E100E00BBF02C007900D92A831B10737
:1001C000D9F721E0A8E1B1E001C01D92AF31B2073B
:1001D000E1F7D0D20C94270A13CF483008F001C1C0
:1001E000893C09F4ADC000F5833009F46EC078F4A1
:1001F000813009F45FC008F453C0A5B301C0220FD9
:100200004A95EAF72A2726232A2725BB5CC0853092
:1002100009F471C008F464C0863009F479C0883CE0
:1002200009F483C082E008958E3C09F4B5C0B8F4A7
:100230008B3C09F49BC008F48EC08C3C09F4A1C02F
:100240008D3C81F7E0916100A22F01C0AA0F4A9571
:10025000EAF7AE27A623AE27A093610034C0833D02
:1002600009F4A7C068F4823DE9F6E9B7A22F01C0FE
:10027000AA0F4A95EAF7AE27A623AE27A9BF23C047
:10028000843D09F4A3C0853D69F6A8B7822F01C05B
:10029000880F4A95EAF78A2786238A2788BF13C0E2
:1002A000ABB301C0220F4A95EAF72A2726232A2753
:1002B0002BBB0895A8B301C0220F4A95EAF72A275D
:1002C00026232A2728BB80E00895E2B3A22F01C08D
:1002D000AA0F4A95EAF7AE27A623AE27A2BBF3CF13
:1002E000E3B1A22F01C0AA0F4A95EAF7AE27A623D1
:1002F000AE27A3B9E8CFE0916200A22F01C0AA0FF8
:100300004A95EAF7AE27A623AE27A0936200DBCF7B
:10031000E0916500A22F01C0AA0F4A95EAF7AE2727
:10032000A623AE27A0936500CECFEAB3A22F01C0CB
:10033000AA0F4A95EAF7AE27A623AE27AABBC3CFDA
:10034000E7B3A22F01C0AA0F4A95EAF7AE27A6236A
:10035000AE27A7BBB8CFE4B3A22F01C0AA0F4A951E
:10036000EAF7AE27A623AE27A4BBADCFE1B3A22FF9
:1003700001C0AA0F4A95EAF7AE27A623AE27A1BB74
:10038000A2CFE2B1A22F01C0AA0F4A95EAF7AE2789
:10039000A623AE27A2B997CFE0916400A22F01C097
:1003A000AA0F4A95EAF7AE27A623AE27A0936400CA
:1003B0008ACFA0916A00E22F01C0EE0F4A95EAF7BA
:1003C000EA27E623EA27E0936A007DCFAAB7E22F67
:1003D00001C0EE0F4A95EAF7EA27E623EA27EABFCB
:1003E00072CF85E00895F9014830E0F5893681F152
:1003F00078F4863649F130F48436C9F0853611F147
:1004000082E00895873611F18836D1F781B110C0A6
:10041000833D19F130F48A36E9F0823D89F789B7D6
:1004200007C0843DE9F0853D59F788B701C089B31D
:10043000682370E002C0759567954A95E2F760837E
:1004400080E0089586B3F4CF83B3F2CF80B3F0CFCA
:1004500080B1EECF80916300EBCF80916A00E8CF4E
:100460008AB7E6CF85E00895FA01613009F049C006
:10047000863099F180F4823049F130F48823F9F024
:10048000813001F182E008959081843021F108F1FA
:100490009093620019C08B3C51F140F4893C09F102
:1004A00018F5883C79F780818ABB0EC08D3C29F114
:1004B00008F18E3C39F780818093640005C09081FB
:1004C0009BBB0895808188BB80E00895808185BBB7
:1004D000FBCF92BBF9CF93B9F7CF808180936500B2
:1004E000F3CF808187BBF0CF808184BBEDCF80814B
:1004F00081BBEACF808182B9E7CF808180936100A0
:10050000E3CF83E00895DA016130C9F4845687307F
:10051000C0F4E82FF0E0E953FF4FCFC589B38C93C7
:1005200080E0089586B3FBCF83B3F9CF80B3F7CFD4
:1005300081B1F5CF80B1F3CF80916300F0CF83E03C
:10054000089582E008951AD039D03CD048E151E0B6
:1005500061E090E080E048C0CF93C82F8A3011F46A
:100560008DE0FADF5D9BFECFCCB990E080E0CF91CB
:1005700008955F9BFECF8CB190E00895109290009B
:1005800081E189B98AB188618AB9E5E9F0E08081C1
:1005900086608083E9E1F1E080E091E093838283EB
:1005A000918380830895883040F498B39F7140E22E
:1005B000849F90011124922B98BB089587B3806E7D
:1005C00087BB089587B3807F876087BB82E58DB93D
:1005D00008958FB9779BFECF8FB108959C01CA0112
:1005E000462F50E0B9011DC79C01CA01462F50E0BB
:1005F000B90107C7CF93DF93EC0120E140E060E150
:1006000080E0EBDD2FEF40E06FEF8AECE6DD209736
:1006100031F420E440E06FE782E0DFDD4FC0C1301D
:10062000D10531F429E740E06FE782E0D6DD46C02E
:10063000C230D10531F424E240E06FE782E0CDDD45
:100640003DC0C330D10531F420E340E06FE782E0E4
:10065000C4DD34C0C430D10531F429E140E06FE796
:1006600082E0BBDD2BC0C530D10531F422E140E092
:100670006FE782E0B2DD22C0C630D10531F422E05E
:1006800040E06FE782E0A9DD19C0C730D10531F441
:1006900028E740E06FE782E0A0DD10C0C830D10558
:1006A00031F420E040E06FE782E097DD07C0299752
:1006B00029F420E140E06FE782E08FDDDF91CF9108
:1006C00008956130710529F4049799F18AE090E06A
:1006D00008956230710521F48430910579F42CC0BD
:1006E0006430710521F48430910561F428C06830CC
:1006F000710541F58430910549F427C08330910597
:1007000049F426C08330910551F425C0833091050A
:1007100059F424C0029729F18AE090E008950297E5
:1007200019F18AE090E00895029709F589E090E0D8
:10073000089580E090E0089581E090E0089584E0DD
:1007400090E008958AE090E0089587E090E00895B1
:1007500082E090E0089585E090E0089588E090E0E0
:10076000089583E090E0089586E090E008958AE09F
:1007700090E00895CF93DF93CDB7DEB72A970FB6F9
:10078000F894DEBF0FBECDBFDEDE8EE091E09F931A
:100790008F93C6D5FE01319688E0DF011D928A95C0
:1007A000E9F72FE740E06FE78AEC17DD20E440E04F
:1007B0006FE782E012DD2FE140E06FE188EC0DDDB4
:1007C00020E040E067E080E008DDECECFAE0319703
:1007D000F1F700C0000021E040E067E080E0FDDCD0
:1007E0008CEC9AE00197F1F700C0000022E040E0B5
:1007F00067E080E0F2DCACECBAE01197F1F700C002
:10080000000023E040E067E080E0E7DCECECFAE0A9
:100810003197F1F700C0000027E040E067E080E09A
:10082000DCDC0F900F900F2EF4E18F2EF1E09F2E65
:10083000F02D6894772472F8C12C212C689433240D
:1008400031F8412C55245394612C20EF40E060EFA7
:100850008AECC3DC20E040E06FE08AECBEDC20E004
:1008600040E060E180E0B9DCA12CB12C1A86198649
:10087000A114B10441F420E140E060EF82E0ADDC7E
:10088000052D162D1FC0F1E0AF16B10441F420E292
:1008900040E060EF82E0A1DC032D142D13C022E0C4
:1008A000A216B10441F420E440E060EF82E095DC60
:1008B00003E0122D07C020E840E060EF82E08DDC0D
:1008C000072D1C2D28E040E068E080E086DC8CEC01
:1008D0009AE00197F1F700C0000020E040E068E0F6
:1008E00080E07BDC20E040E060EF82E076DCAE017F
:1008F000475F5F4F61E086E606DE69857A85802F77
:10090000912FDFDE8A30910508F03CC02B813C81BD
:100910003A8329832D813E813C832B832F81388527
:100920003E832D8398878F83DE0111967D0110E031
:10093000F701D0800181F2E0EF0EF11C0F93DF92FE
:100940009F928F92EDD48D2D902F54DE212F40E079
:1009500067E080E042DC8CEC9AE00197F1F700C0A0
:10096000000027E040E067E080E037DC1F5F0F9089
:100970000F900F900F901430D9F620E040E060E126
:1009800080E02BDC9FEFAFEBB6E09150A040B04091
:10099000E1F700C00000EFEFAE1ABE0AF4E0AF16B8
:1009A000B10409F063CF51CF2F923F924F925F92E3
:1009B0006F927F928F929F92AF92BF92CF92DF926F
:1009C000EF92FF920F931F93CF93DF93CDB7DEB7D4
:1009D00060970FB6F894DEBF0FBECDBF7C011B0140
:1009E0006A01FC0117821682838181FF2AC39E015E
:1009F0002F5F3F4F3901F7019381F10193FD8591FD
:100A000093FF81911F01882309F417C3853239F4BC
:100A100093FD859193FF81911F01853231F4B701D8
:100A200090E042D456016501E6CF10E0512C912CA4
:100A3000FFE1F915D8F08B3279F038F4803279F093
:100A40008332A1F4F92DF0612EC08D3261F0803334
:100A500069F4292D21602DC0392D3260932E892D06
:100A60008460982E2AC0E92DE86015C097FC2DC03F
:100A700020ED280F2A3088F496FE06C03AE0139F36
:100A8000200D1124122F19C08AE0589E200D112428
:100A9000522EE92DE0629E2E10C08E3231F496FC6B
:100AA000CCC2F92DF0649F2E08C08C3621F4292D7C
:100AB0002068922E02C0883641F4F10193FD8591A1
:100AC00093FF81911F018111B3CF9BEB980F93305E
:100AD00020F4992D9061805E07C09BE9980F9330B8
:100AE00008F059C1992D9F7E96FF16E09F73992EAD
:100AF000853619F49064992E08C0863621F4392F72
:100B00003068932E02C01111115097FE07C01C339C
:100B100050F444244394410E27E00BC0183038F0C1
:100B200027E017E005C027E09CE3492E02C0212FF3
:100B3000412C560184E0A80EB11CF6016081718140
:100B400082819381042DA301C1D26C01F981FC87BC
:100B5000F0FF02C0F3FF06C091FC06C092FE06C083
:100B600000E205C00DE203C00BE201C000E08C858D
:100B70008C7019F0011143C280C297FE10C04C0C5A
:100B8000FC85F4FF04C08A81813309F44A9414146B
:100B900074F528E0241578F588E0482E2CC096FCE2
:100BA0002AC0812F90E08C159D059CF03CEFC31668
:100BB0003FEFD30674F0892D8068982E0AC0E2E0DA
:100BC000F0E0EC0FFD1FE10FF11D8081803319F47F
:100BD00011501111F4CF97FE0EC044244394410EDE
:100BE000812F90E0C816D9062CF41C1904C04424A7
:100BF000439401C010E097FE06C01C141D0434F499
:100C0000C601019605C085E090E002C081E090E059
:100C100001110196112331F0212F30E02F5F3F4F5A
:100C2000820F931F252D30E08217930714F4581A72
:100C300001C0512C892D897041F4552031F0B70144
:100C400080E290E031D35A94F8CF002321F0B7012D
:100C5000802F90E029D393FC08C0552031F0B701D4
:100C600080E390E021D35A94F8CF97FE4AC0460122
:100C7000D7FE02C0812C912CC60188199909F30175
:100C8000E80FF91FFE87ED87960124193109388B8B
:100C90002F87012F10E01195019511093FEF831661
:100CA000930621F4B7018EE290E0FED2C814D90475
:100CB0004CF08F8598898815990524F4ED85FE857B
:100CC000818101C080E3F1E08F1A91082D853E8576
:100CD0002F5F3F4F3E872D878016910624F0B70186
:100CE00090E0E2D2DBCFC814D90441F49A81963364
:100CF00020F4953319F43C8534FF81E3B70190E08B
:100D000048C08A81813319F09C859F7E9C87B701FA
:100D100090E0CAD2111105C094FC16C085E690E09F
:100D200015C0B7018EE290E0BFD21E5F82E001E005
:100D3000080FF301E80FF11D8081B70190E0B4D2F4
:100D4000802F0113F4CFE8CF85E490E0B701ACD257
:100D5000D7FC06C0C114D10441F4EC85E4FF05C002
:100D6000D194C194D1088DE201C08BE2B70190E02B
:100D70009BD280E32AE0C216D1042CF08F5FFAE008
:100D8000CF1AD108F7CFB70190E08ED2B701C601D4
:100D9000C0968AD249C1833631F0833779F08335E2
:100DA00009F052C01FC0560132E0A30EB11CF6017B
:100DB0008081898301E010E0630111C05601F2E0F7
:100DC000AF0EB11CF601C080D18096FE03C0612F2A
:100DD00070E002C06FEF7FEFC6015BD28C01F92D8E
:100DE000FF7713C0560122E0A20EB11CF601C080AD
:100DF000D18096FE03C0612F70E002C06FEF7FEFDD
:100E0000C6013CD28C01F92DF0689F2EF3FD18C06D
:100E1000852D90E00817190798F4B70180E290E05B
:100E200043D25A94F5CFF60197FC859197FE8191B4
:100E30006F01B70190E038D251105A940150110956
:100E40000115110581F7F0C0843611F0893659F586
:100E5000560197FE09C024E0A20EB11CF601608184
:100E60007181828193810AC0F2E0AF0EB11CF6015C
:100E700060817181072E000C880B990BF92DFF768C
:100E80009F2E97FF09C090958095709561957F4F33
:100E90008F4F9F4FF0689F2E2AE030E0A30153D27E
:100EA000C82EC6183EC0092D853721F40F7E2AE0D2
:100EB00030E01DC0097F8F3691F018F4883559F065
:100EC000BCC0803719F0883711F0B7C0006104FF4B
:100ED00009C0046007C094FE08C0066006C028E090
:100EE00030E005C020E130E002C020E132E05601F0
:100EF00007FF09C084E0A80EB11CF6016081718172
:100F00008281938108C0F2E0AF0EB11CF6016081CE
:100F1000718180E090E0A30116D2C82EC6180F7729
:100F2000902E96FE0BC0092D0E7FC11650F494FE34
:100F30000AC092FC08C0092D0E7E05C0DC2C092DCC
:100F400003C0DC2C01C0D12E04FF0DC0FE01EC0D4E
:100F5000F11D8081803311F4097E09C002FF06C0B3
:100F6000D394D39404C0802F867809F0D39403FDE2
:100F700010C000FF06C01C2DD51478F4150D1D19E6
:100F80000CC0D51450F4B70180E290E08DD1D39419
:100F9000F8CFD51410F45D1801C0512C04FF0FC018
:100FA000B70180E390E080D102FF16C001FD03C0CD
:100FB00088E790E002C088E590E0B7010CC0802F80
:100FC000867851F001FF02C08BE201C080E207FD8C
:100FD0008DE2B70190E068D1C11630F4B70180E32B
:100FE00090E062D11150F8CFCA94F301EC0DF11DDD
:100FF0008081B70190E058D1C110F6CF15C0F4E060
:10100000F51550F584E0581A93FE1EC0011125C055
:101010002C8523FF27C00CE810E0392D3071932E6A
:10102000F8018491811121C0552009F4FCCCB7014D
:1010300080E290E039D15A94F7CFF7018681978109
:1010400023C08FEF9FEF20C0B70180E290E02CD14A
:101050005A945110F9CFDACF512CB701802F90E07C
:1010600023D1D6CF00E910E0D8CF91108052B7013C
:1010700090E01AD10F5F1F4FD3CF23E0251510F456
:1010800083E0C1CF512CC4CF60960FB6F894DEBF79
:101090000FBECDBFDF91CF911F910F91FF90EF90C9
:1010A000DF90CF90BF90AF909F908F907F906F9088
:1010B0005F904F903F902F900895EE0FFF1F0024F8
:1010C000001C0BBE0790F691E02D0994283008F023
:1010D00027E03327DA01990F311D87FD91600096D3
:1010E0006105710539F432602E5F3D9330E32A9536
:1010F000E1F708959F3F30F080387105610509F0F0
:101100003C5F3C5F3D93913008F08068911DDF9318
:10111000CF931F930F93FF92EF92192F987F96957D
:10112000E92F96959695E90FFF27E251FF4F9927F2
:101130003327EE24FF24A701E701059008940794C4
:1011400028F4360FE71EF81E491F511D660F771F42
:10115000881F991F0694A1F70590079428F4E70EBD
:10116000F81E491F561FC11D770F881F991F661F44
:101170000694A1F70590079428F4F80E491F561F0E
:10118000C71FD11D880F991F661F771F0694A1F7EF
:101190000590079420F4490F561FC71FD81F990FB9
:1011A000661F771F881F0694A9F784911095177002
:1011B00041F0D695C79557954795F794E7941A95BA
:1011C000C1F7E4E9F0E068941590159135916591C7
:1011D000959105907FE27395E118F10A430B560B48
:1011E000C90BD009C0F7E10CF11E431F561FC91FE0
:1011F000D01D7EF4703311F48A95E6CFE894015047
:1012000030F0080F0AF40027021708F4202F239566
:10121000022F7A3328F079E37D932A95E9F710C0FD
:101220007D932A9589F60694979567953795179536
:101230001794E118F10A430B560BC90BD00998F02B
:1012400023957E9173957A3308F070E37C93201395
:10125000B8F77E9170617D9330F0839571E37D9353
:1012600070E32A95E1F71124EF90FF900F911F9101
:10127000CF91DF91992787FD90950895FC01059006
:10128000615070400110D8F7809590958E0F9F1F88
:101290000895FC016150704001900110D8F78095CD
:1012A00090958E0F9F1F08950F931F93CF93DF93F9
:1012B000FB01238121FD03C08FEF9FEF2CC022FF94
:1012C00016C046815781248135814217530744F463
:1012D000A081B1819D012F5F3F4F318320838C938B
:1012E000268137812F5F3F4F3783268314C08B01C0
:1012F000EC01FB010084F185E02D0995892BE1F6D5
:10130000D80116968D919C911797019617969C93EC
:101310008E931697CE01DF91CF911F910F91089573
:10132000CF93DF93CDB7DEB7AE014B5F5F4FFA01CE
:1013300061917191AF0180911B0190911C0134DB8F
:10134000DF91CF910895FA01AA27283051F1203179
:1013500081F1E8946F936E7F6E5F7F4F8F4F9F4F49
:10136000AF4FB1E03ED0B4E03CD0670F781F891F8B
:101370009A1FA11D680F791F8A1F911DA11D6A0F59
:10138000711D811D911DA11D20D009F468943F910C
:101390002AE0269F11243019305D3193DEF6CF010B
:1013A0000895462F4770405D4193B3E00FD0C9F7D1
:1013B000F6CF462F4F70405D4A3318F0495D31FD3E
:1013C0004052419302D0A9F7EACFB4E0A695979591
:1013D000879577956795BA95C9F700976105710567
:1013E00008959B01AC010A2E0694579547953795B1
:1013F0002795BA95C9F7620F731F841F951FA01D0B
:101400000895DC01CB01FC01E199FECF06C0FFBBD2
:10141000EEBBE09A31960DB20D9241505040B8F7B4
:101420000895DC01CB0102C02D9105D04150504000
:10143000D8F70895262FE199FECF9FBB8EBB2DBB19
:101440000FB6F894E29AE19A0FBE01960895F894C7
:02145000FFCFCC
:101452000000000300000000AC02B9020000535477
:081462004152540025640A0008
:00000001FF
